{
  "contractName": "CustomToken",
  "abi": [
    {
      "inputs": [
        {
          "internalType": "uint256",
          "name": "maxSupply_",
          "type": "uint256"
        },
        {
          "internalType": "address[]",
          "name": "mintingAdmins_",
          "type": "address[]"
        },
        {
          "internalType": "uint256",
          "name": "tmax_",
          "type": "uint256"
        }
      ],
      "stateMutability": "nonpayable",
      "type": "constructor"
    },
    {
      "anonymous": false,
      "inputs": [
        {
          "indexed": true,
          "internalType": "address",
          "name": "owner",
          "type": "address"
        },
        {
          "indexed": true,
          "internalType": "address",
          "name": "spender",
          "type": "address"
        },
        {
          "indexed": false,
          "internalType": "uint256",
          "name": "value",
          "type": "uint256"
        }
      ],
      "name": "Approval",
      "type": "event"
    },
    {
      "anonymous": false,
      "inputs": [
        {
          "indexed": true,
          "internalType": "address",
          "name": "from",
          "type": "address"
        },
        {
          "indexed": true,
          "internalType": "address",
          "name": "to",
          "type": "address"
        },
        {
          "indexed": false,
          "internalType": "uint256",
          "name": "value",
          "type": "uint256"
        }
      ],
      "name": "Transfer",
      "type": "event"
    },
    {
      "inputs": [
        {
          "internalType": "address",
          "name": "owner",
          "type": "address"
        },
        {
          "internalType": "address",
          "name": "spender",
          "type": "address"
        }
      ],
      "name": "allowance",
      "outputs": [
        {
          "internalType": "uint256",
          "name": "",
          "type": "uint256"
        }
      ],
      "stateMutability": "view",
      "type": "function"
    },
    {
      "inputs": [
        {
          "internalType": "address",
          "name": "spender",
          "type": "address"
        },
        {
          "internalType": "uint256",
          "name": "amount",
          "type": "uint256"
        }
      ],
      "name": "approve",
      "outputs": [
        {
          "internalType": "bool",
          "name": "",
          "type": "bool"
        }
      ],
      "stateMutability": "nonpayable",
      "type": "function"
    },
    {
      "inputs": [
        {
          "internalType": "address",
          "name": "account",
          "type": "address"
        }
      ],
      "name": "balanceOf",
      "outputs": [
        {
          "internalType": "uint256",
          "name": "",
          "type": "uint256"
        }
      ],
      "stateMutability": "view",
      "type": "function"
    },
    {
      "inputs": [],
      "name": "decimals",
      "outputs": [
        {
          "internalType": "uint8",
          "name": "",
          "type": "uint8"
        }
      ],
      "stateMutability": "view",
      "type": "function"
    },
    {
      "inputs": [
        {
          "internalType": "address",
          "name": "spender",
          "type": "address"
        },
        {
          "internalType": "uint256",
          "name": "subtractedValue",
          "type": "uint256"
        }
      ],
      "name": "decreaseAllowance",
      "outputs": [
        {
          "internalType": "bool",
          "name": "",
          "type": "bool"
        }
      ],
      "stateMutability": "nonpayable",
      "type": "function"
    },
    {
      "inputs": [
        {
          "internalType": "address",
          "name": "spender",
          "type": "address"
        },
        {
          "internalType": "uint256",
          "name": "addedValue",
          "type": "uint256"
        }
      ],
      "name": "increaseAllowance",
      "outputs": [
        {
          "internalType": "bool",
          "name": "",
          "type": "bool"
        }
      ],
      "stateMutability": "nonpayable",
      "type": "function"
    },
    {
      "inputs": [],
      "name": "name",
      "outputs": [
        {
          "internalType": "string",
          "name": "",
          "type": "string"
        }
      ],
      "stateMutability": "view",
      "type": "function"
    },
    {
      "inputs": [],
      "name": "symbol",
      "outputs": [
        {
          "internalType": "string",
          "name": "",
          "type": "string"
        }
      ],
      "stateMutability": "view",
      "type": "function"
    },
    {
      "inputs": [],
      "name": "totalSupply",
      "outputs": [
        {
          "internalType": "uint256",
          "name": "",
          "type": "uint256"
        }
      ],
      "stateMutability": "view",
      "type": "function"
    },
    {
      "inputs": [],
      "name": "maxSupply",
      "outputs": [
        {
          "internalType": "uint256",
          "name": "",
          "type": "uint256"
        }
      ],
      "stateMutability": "view",
      "type": "function"
    },
    {
      "inputs": [],
      "name": "GetTMAX",
      "outputs": [
        {
          "internalType": "uint256",
          "name": "",
          "type": "uint256"
        }
      ],
      "stateMutability": "view",
      "type": "function"
    },
    {
      "inputs": [
        {
          "internalType": "address",
          "name": "to",
          "type": "address"
        },
        {
          "internalType": "uint256",
          "name": "amount",
          "type": "uint256"
        }
      ],
      "name": "mint",
      "outputs": [],
      "stateMutability": "nonpayable",
      "type": "function"
    },
    {
      "inputs": [
        {
          "internalType": "address[]",
          "name": "recipients",
          "type": "address[]"
        },
        {
          "internalType": "uint256[]",
          "name": "amounts",
          "type": "uint256[]"
        }
      ],
      "name": "mintBatch",
      "outputs": [],
      "stateMutability": "nonpayable",
      "type": "function"
    },
    {
      "inputs": [
        {
          "internalType": "uint256",
          "name": "_tmax",
          "type": "uint256"
        }
      ],
      "name": "proposeTMAX",
      "outputs": [],
      "stateMutability": "nonpayable",
      "type": "function"
    },
    {
      "inputs": [
        {
          "internalType": "address",
          "name": "admin",
          "type": "address"
        }
      ],
      "name": "addMintAdmin",
      "outputs": [],
      "stateMutability": "nonpayable",
      "type": "function"
    },
    {
      "inputs": [
        {
          "internalType": "address",
          "name": "admin",
          "type": "address"
        }
      ],
      "name": "removeMintAdmin",
      "outputs": [],
      "stateMutability": "nonpayable",
      "type": "function"
    },
    {
      "inputs": [
        {
          "internalType": "address",
          "name": "recipient",
          "type": "address"
        },
        {
          "internalType": "uint256",
          "name": "amount",
          "type": "uint256"
        }
      ],
      "name": "transfer",
      "outputs": [
        {
          "internalType": "bool",
          "name": "",
          "type": "bool"
        }
      ],
      "stateMutability": "nonpayable",
      "type": "function"
    },
    {
      "inputs": [
        {
          "internalType": "address",
          "name": "sender",
          "type": "address"
        },
        {
          "internalType": "address",
          "name": "recipient",
          "type": "address"
        },
        {
          "internalType": "uint256",
          "name": "amount",
          "type": "uint256"
        }
      ],
      "name": "transferFrom",
      "outputs": [
        {
          "internalType": "bool",
          "name": "",
          "type": "bool"
        }
      ],
      "stateMutability": "nonpayable",
      "type": "function"
    }
  ],
  "bytecode": "0x60806040523480156200001157600080fd5b5060405162003069380380620030698339818101604052810190620000379190620004f9565b6040518060400160405280600b81526020017f437573746f6d546f6b656e0000000000000000000000000000000000000000008152506040518060400160405280600381526020017f43544b00000000000000000000000000000000000000000000000000000000008152508160039080519060200190620000bb92919062000220565b508060049080519060200190620000d492919062000220565b505050826007819055508060088190555060005b825181101562000141576200012a8382815181106200010c576200010b62000574565b5b602002602001015160056200014b60201b6200105a1790919060201c565b5080806200013890620005d2565b915050620000e8565b5050505062000683565b60006200017b836000018373ffffffffffffffffffffffffffffffffffffffff1660001b6200018360201b60201c565b905092915050565b6000620001978383620001fd60201b60201c565b620001f2578260000182908060018154018082558091505060019003906000526020600020016000909190919091505582600001805490508360010160008481526020019081526020016000208190555060019050620001f7565b600090505b92915050565b600080836001016000848152602001908152602001600020541415905092915050565b8280546200022e906200064e565b90600052602060002090601f0160209004810192826200025257600085556200029e565b82601f106200026d57805160ff19168380011785556200029e565b828001600101855582156200029e579182015b828111156200029d57825182559160200191906001019062000280565b5b509050620002ad9190620002b1565b5090565b5b80821115620002cc576000816000905550600101620002b2565b5090565b6000604051905090565b600080fd5b600080fd5b6000819050919050565b620002f981620002e4565b81146200030557600080fd5b50565b6000815190506200031981620002ee565b92915050565b600080fd5b6000601f19601f8301169050919050565b7f4e487b7100000000000000000000000000000000000000000000000000000000600052604160045260246000fd5b6200036f8262000324565b810181811067ffffffffffffffff8211171562000391576200039062000335565b5b80604052505050565b6000620003a6620002d0565b9050620003b4828262000364565b919050565b600067ffffffffffffffff821115620003d757620003d662000335565b5b602082029050602081019050919050565b600080fd5b600073ffffffffffffffffffffffffffffffffffffffff82169050919050565b60006200041a82620003ed565b9050919050565b6200042c816200040d565b81146200043857600080fd5b50565b6000815190506200044c8162000421565b92915050565b6000620004696200046384620003b9565b6200039a565b905080838252602082019050602084028301858111156200048f576200048e620003e8565b5b835b81811015620004bc5780620004a788826200043b565b84526020840193505060208101905062000491565b5050509392505050565b600082601f830112620004de57620004dd6200031f565b5b8151620004f084826020860162000452565b91505092915050565b600080600060608486031215620005155762000514620002da565b5b6000620005258682870162000308565b935050602084015167ffffffffffffffff811115620005495762000548620002df565b5b6200055786828701620004c6565b92505060406200056a8682870162000308565b9150509250925092565b7f4e487b7100000000000000000000000000000000000000000000000000000000600052603260045260246000fd5b7f4e487b7100000000000000000000000000000000000000000000000000000000600052601160045260246000fd5b6000620005df82620002e4565b91507fffffffffffffffffffffffffffffffffffffffffffffffffffffffffffffffff8203620006145762000613620005a3565b5b600182019050919050565b7f4e487b7100000000000000000000000000000000000000000000000000000000600052602260045260246000fd5b600060028204905060018216806200066757607f821691505b6020821081036200067d576200067c6200061f565b5b50919050565b6129d680620006936000396000f3fe608060405234801561001057600080fd5b50600436106101165760003560e01c80634ff6c133116100a2578063a457c2d711610071578063a457c2d7146102df578063a9059cbb1461030f578063c5325e041461033f578063d5abeb011461035d578063dd62ed3e1461037b57610116565b80634ff6c1331461025957806370a08231146102755780637c88e3d9146102a557806395d89b41146102c157610116565b80632008c0b3116100e95780632008c0b3146101a357806323b872dd146101bf578063313ce567146101ef578063395093511461020d57806340c10f191461023d57610116565b8063033cd1211461011b57806306fdde0314610137578063095ea7b31461015557806318160ddd14610185575b600080fd5b61013560048036038101906101309190611b43565b6103ab565b005b61013f6105e2565b60405161014c9190611c09565b60405180910390f35b61016f600480360381019061016a9190611c61565b610674565b60405161017c9190611cbc565b60405180910390f35b61018d610697565b60405161019a9190611ce6565b60405180910390f35b6101bd60048036038101906101b89190611b43565b6106a1565b005b6101d960048036038101906101d49190611d01565b6108d8565b6040516101e69190611cbc565b60405180910390f35b6101f761095f565b6040516102049190611d70565b60405180910390f35b61022760048036038101906102229190611c61565b610968565b6040516102349190611cbc565b60405180910390f35b61025760048036038101906102529190611c61565b61099f565b005b610273600480360381019061026e9190611d8b565b610b4b565b005b61028f600480360381019061028a9190611b43565b610cf0565b60405161029c9190611ce6565b60405180910390f35b6102bf60048036038101906102ba9190611fc3565b610d38565b005b6102c9610e31565b6040516102d69190611c09565b60405180910390f35b6102f960048036038101906102f49190611c61565b610ec3565b6040516103069190611cbc565b60405180910390f35b61032960048036038101906103249190611c61565b610f3a565b6040516103369190611cbc565b60405180910390f35b610347610fbf565b6040516103549190611ce6565b60405180910390f35b610365610fc9565b6040516103729190611ce6565b60405180910390f35b6103956004803603810190610390919061203b565b610fd3565b6040516103a29190611ce6565b60405180910390f35b6103bf33600561108a90919063ffffffff16565b6103fe576040517f08c379a00000000000000000000000000000000000000000000000000000000081526004016103f5906120c7565b60405180910390fd5b6001600c60008373ffffffffffffffffffffffffffffffffffffffff1673ffffffffffffffffffffffffffffffffffffffff16815260200190815260200160002060003373ffffffffffffffffffffffffffffffffffffffff1673ffffffffffffffffffffffffffffffffffffffff16815260200190815260200160002060006101000a81548160ff02191690831515021790555060006104dc600c60008473ffffffffffffffffffffffffffffffffffffffff1673ffffffffffffffffffffffffffffffffffffffff1681526020019081526020016000206110ba565b90506104e8600561115c565b6002826104f59190612116565b11156105de5761050f82600561105a90919063ffffffff16565b5060005b61051d600561115c565b8110156105dc57600061053a82600561117190919063ffffffff16565b9050600c60008573ffffffffffffffffffffffffffffffffffffffff1673ffffffffffffffffffffffffffffffffffffffff16815260200190815260200160002060008273ffffffffffffffffffffffffffffffffffffffff1673ffffffffffffffffffffffffffffffffffffffff16815260200190815260200160002060006101000a81549060ff02191690555080806105d490612170565b915050610513565b505b5050565b6060600380546105f1906121e7565b80601f016020809104026020016040519081016040528092919081815260200182805461061d906121e7565b801561066a5780601f1061063f5761010080835404028352916020019161066a565b820191906000526020600020905b81548152906001019060200180831161064d57829003601f168201915b5050505050905090565b60008061067f61118b565b905061068c818585611193565b600191505092915050565b6000600254905090565b6106b533600561108a90919063ffffffff16565b6106f4576040517f08c379a00000000000000000000000000000000000000000000000000000000081526004016106eb906120c7565b60405180910390fd5b6001600d60008373ffffffffffffffffffffffffffffffffffffffff1673ffffffffffffffffffffffffffffffffffffffff16815260200190815260200160002060003373ffffffffffffffffffffffffffffffffffffffff1673ffffffffffffffffffffffffffffffffffffffff16815260200190815260200160002060006101000a81548160ff02191690831515021790555060006107d2600d60008473ffffffffffffffffffffffffffffffffffffffff1673ffffffffffffffffffffffffffffffffffffffff1681526020019081526020016000206110ba565b90506107de600561115c565b6002826107eb9190612116565b11156108d45761080582600561135c90919063ffffffff16565b5060005b610813600561115c565b8110156108d257600061083082600561117190919063ffffffff16565b9050600d60008573ffffffffffffffffffffffffffffffffffffffff1673ffffffffffffffffffffffffffffffffffffffff16815260200190815260200160002060008273ffffffffffffffffffffffffffffffffffffffff1673ffffffffffffffffffffffffffffffffffffffff16815260200190815260200160002060006101000a81549060ff02191690555080806108ca90612170565b915050610809565b505b5050565b600082600073ffffffffffffffffffffffffffffffffffffffff168173ffffffffffffffffffffffffffffffffffffffff160361094a576040517f08c379a00000000000000000000000000000000000000000000000000000000081526004016109419061228a565b60405180910390fd5b61095585858561138c565b9150509392505050565b60006012905090565b60008061097361118b565b90506109948185856109858589610fd3565b61098f91906122aa565b611193565b600191505092915050565b806109a8610fc9565b816109b1610697565b6109bb91906122aa565b11156109fc576040517f08c379a00000000000000000000000000000000000000000000000000000000081526004016109f39061234c565b60405180910390fd5b610a1033600561108a90919063ffffffff16565b610a4f576040517f08c379a0000000000000000000000000000000000000000000000000000000008152600401610a46906120c7565b60405180910390fd5b610a576113bb565b60085482600a60003373ffffffffffffffffffffffffffffffffffffffff1673ffffffffffffffffffffffffffffffffffffffff16815260200190815260200160002054610aa591906122aa565b1115610ae6576040517f08c379a0000000000000000000000000000000000000000000000000000000008152600401610add906123b8565b60405180910390fd5b81600a60003373ffffffffffffffffffffffffffffffffffffffff1673ffffffffffffffffffffffffffffffffffffffff1681526020019081526020016000206000828254610b3591906122aa565b92505081905550610b468383611469565b505050565b610b5f33600561108a90919063ffffffff16565b610b9e576040517f08c379a0000000000000000000000000000000000000000000000000000000008152600401610b95906120c7565b60405180910390fd5b6001600b600083815260200190815260200160002060003373ffffffffffffffffffffffffffffffffffffffff1673ffffffffffffffffffffffffffffffffffffffff16815260200190815260200160002060006101000a81548160ff0219169083151502179055506000610c24600b60008481526020019081526020016000206110ba565b9050610c30600561115c565b600282610c3d9190612116565b1115610cec578160088190555060005b610c57600561115c565b811015610cea576000610c7482600561117190919063ffffffff16565b9050600b600085815260200190815260200160002060008273ffffffffffffffffffffffffffffffffffffffff1673ffffffffffffffffffffffffffffffffffffffff16815260200190815260200160002060006101000a81549060ff0219169055508080610ce290612170565b915050610c4d565b505b5050565b60008060008373ffffffffffffffffffffffffffffffffffffffff1673ffffffffffffffffffffffffffffffffffffffff168152602001908152602001600020549050919050565b610d4c33600561108a90919063ffffffff16565b610d8b576040517f08c379a0000000000000000000000000000000000000000000000000000000008152600401610d82906120c7565b60405180910390fd5b8051825114610dcf576040517f08c379a0000000000000000000000000000000000000000000000000000000008152600401610dc69061244a565b60405180910390fd5b60005b8251811015610e2c57610e19838281518110610df157610df061246a565b5b6020026020010151838381518110610e0c57610e0b61246a565b5b602002602001015161099f565b8080610e2490612170565b915050610dd2565b505050565b606060048054610e40906121e7565b80601f0160208091040260200160405190810160405280929190818152602001828054610e6c906121e7565b8015610eb95780601f10610e8e57610100808354040283529160200191610eb9565b820191906000526020600020905b815481529060010190602001808311610e9c57829003601f168201915b5050505050905090565b600080610ece61118b565b90506000610edc8286610fd3565b905083811015610f21576040517f08c379a0000000000000000000000000000000000000000000000000000000008152600401610f189061250b565b60405180910390fd5b610f2e8286868403611193565b60019250505092915050565b600082600073ffffffffffffffffffffffffffffffffffffffff168173ffffffffffffffffffffffffffffffffffffffff1603610fac576040517f08c379a0000000000000000000000000000000000000000000000000000000008152600401610fa39061228a565b60405180910390fd5b610fb684846115bf565b91505092915050565b6000600854905090565b6000600754905090565b6000600160008473ffffffffffffffffffffffffffffffffffffffff1673ffffffffffffffffffffffffffffffffffffffff16815260200190815260200160002060008373ffffffffffffffffffffffffffffffffffffffff1673ffffffffffffffffffffffffffffffffffffffff16815260200190815260200160002054905092915050565b6000611082836000018373ffffffffffffffffffffffffffffffffffffffff1660001b6115e2565b905092915050565b60006110b2836000018373ffffffffffffffffffffffffffffffffffffffff1660001b611652565b905092915050565b6000806000905060005b6110ce600561115c565b811015611152578360006110e3600584611171565b73ffffffffffffffffffffffffffffffffffffffff1673ffffffffffffffffffffffffffffffffffffffff16815260200190815260200160002060009054906101000a900460ff161561113f57818061113b90612170565b9250505b808061114a90612170565b9150506110c4565b5080915050919050565b600061116a82600001611675565b9050919050565b60006111808360000183611686565b60001c905092915050565b600033905090565b600073ffffffffffffffffffffffffffffffffffffffff168373ffffffffffffffffffffffffffffffffffffffff1603611202576040517f08c379a00000000000000000000000000000000000000000000000000000000081526004016111f99061259d565b60405180910390fd5b600073ffffffffffffffffffffffffffffffffffffffff168273ffffffffffffffffffffffffffffffffffffffff1603611271576040517f08c379a00000000000000000000000000000000000000000000000000000000081526004016112689061262f565b60405180910390fd5b80600160008573ffffffffffffffffffffffffffffffffffffffff1673ffffffffffffffffffffffffffffffffffffffff16815260200190815260200160002060008473ffffffffffffffffffffffffffffffffffffffff1673ffffffffffffffffffffffffffffffffffffffff168152602001908152602001600020819055508173ffffffffffffffffffffffffffffffffffffffff168373ffffffffffffffffffffffffffffffffffffffff167f8c5be1e5ebec7d5bd14f71427d1e84f3dd0314c0f7b2291e5b200ac8c7c3b9258360405161134f9190611ce6565b60405180910390a3505050565b6000611384836000018373ffffffffffffffffffffffffffffffffffffffff1660001b6116b1565b905092915050565b60008061139761118b565b90506113a48582856117c5565b6113af858585611851565b60019150509392505050565b600062015180426113cc919061267e565b9050600954811115611466578060098190555060005b6113ec600561115c565b81101561146457600061140982600561117190919063ffffffff16565b90506000600a60008373ffffffffffffffffffffffffffffffffffffffff1673ffffffffffffffffffffffffffffffffffffffff1681526020019081526020016000208190555050808061145c90612170565b9150506113e2565b505b50565b600073ffffffffffffffffffffffffffffffffffffffff168273ffffffffffffffffffffffffffffffffffffffff16036114d8576040517f08c379a00000000000000000000000000000000000000000000000000000000081526004016114cf906126fb565b60405180910390fd5b6114e460008383611ac7565b80600260008282546114f691906122aa565b92505081905550806000808473ffffffffffffffffffffffffffffffffffffffff1673ffffffffffffffffffffffffffffffffffffffff168152602001908152602001600020600082825401925050819055508173ffffffffffffffffffffffffffffffffffffffff16600073ffffffffffffffffffffffffffffffffffffffff167fddf252ad1be2c89b69c2b068fc378daa952ba7f163c4a11628f55a4df523b3ef836040516115a79190611ce6565b60405180910390a36115bb60008383611acc565b5050565b6000806115ca61118b565b90506115d7818585611851565b600191505092915050565b60006115ee8383611652565b61164757826000018290806001815401808255809150506001900390600052602060002001600090919091909150558260000180549050836001016000848152602001908152602001600020819055506001905061164c565b600090505b92915050565b600080836001016000848152602001908152602001600020541415905092915050565b600081600001805490509050919050565b600082600001828154811061169e5761169d61246a565b5b9060005260206000200154905092915050565b600080836001016000848152602001908152602001600020549050600081146117b95760006001826116e3919061271b565b90506000600186600001805490506116fb919061271b565b905081811461176a57600086600001828154811061171c5761171b61246a565b5b90600052602060002001549050808760000184815481106117405761173f61246a565b5b90600052602060002001819055508387600101600083815260200190815260200160002081905550505b8560000180548061177e5761177d61274f565b5b6001900381819060005260206000200160009055905585600101600086815260200190815260200160002060009055600193505050506117bf565b60009150505b92915050565b60006117d18484610fd3565b90507fffffffffffffffffffffffffffffffffffffffffffffffffffffffffffffffff811461184b578181101561183d576040517f08c379a0000000000000000000000000000000000000000000000000000000008152600401611834906127ca565b60405180910390fd5b61184a8484848403611193565b5b50505050565b600073ffffffffffffffffffffffffffffffffffffffff168373ffffffffffffffffffffffffffffffffffffffff16036118c0576040517f08c379a00000000000000000000000000000000000000000000000000000000081526004016118b79061285c565b60405180910390fd5b600073ffffffffffffffffffffffffffffffffffffffff168273ffffffffffffffffffffffffffffffffffffffff160361192f576040517f08c379a0000000000000000000000000000000000000000000000000000000008152600401611926906128ee565b60405180910390fd5b61193a838383611ac7565b60008060008573ffffffffffffffffffffffffffffffffffffffff1673ffffffffffffffffffffffffffffffffffffffff168152602001908152602001600020549050818110156119c0576040517f08c379a00000000000000000000000000000000000000000000000000000000081526004016119b790612980565b60405180910390fd5b8181036000808673ffffffffffffffffffffffffffffffffffffffff1673ffffffffffffffffffffffffffffffffffffffff16815260200190815260200160002081905550816000808573ffffffffffffffffffffffffffffffffffffffff1673ffffffffffffffffffffffffffffffffffffffff168152602001908152602001600020600082825401925050819055508273ffffffffffffffffffffffffffffffffffffffff168473ffffffffffffffffffffffffffffffffffffffff167fddf252ad1be2c89b69c2b068fc378daa952ba7f163c4a11628f55a4df523b3ef84604051611aae9190611ce6565b60405180910390a3611ac1848484611acc565b50505050565b505050565b505050565b6000604051905090565b600080fd5b600080fd5b600073ffffffffffffffffffffffffffffffffffffffff82169050919050565b6000611b1082611ae5565b9050919050565b611b2081611b05565b8114611b2b57600080fd5b50565b600081359050611b3d81611b17565b92915050565b600060208284031215611b5957611b58611adb565b5b6000611b6784828501611b2e565b91505092915050565b600081519050919050565b600082825260208201905092915050565b60005b83811015611baa578082015181840152602081019050611b8f565b83811115611bb9576000848401525b50505050565b6000601f19601f8301169050919050565b6000611bdb82611b70565b611be58185611b7b565b9350611bf5818560208601611b8c565b611bfe81611bbf565b840191505092915050565b60006020820190508181036000830152611c238184611bd0565b905092915050565b6000819050919050565b611c3e81611c2b565b8114611c4957600080fd5b50565b600081359050611c5b81611c35565b92915050565b60008060408385031215611c7857611c77611adb565b5b6000611c8685828601611b2e565b9250506020611c9785828601611c4c565b9150509250929050565b60008115159050919050565b611cb681611ca1565b82525050565b6000602082019050611cd16000830184611cad565b92915050565b611ce081611c2b565b82525050565b6000602082019050611cfb6000830184611cd7565b92915050565b600080600060608486031215611d1a57611d19611adb565b5b6000611d2886828701611b2e565b9350506020611d3986828701611b2e565b9250506040611d4a86828701611c4c565b9150509250925092565b600060ff82169050919050565b611d6a81611d54565b82525050565b6000602082019050611d856000830184611d61565b92915050565b600060208284031215611da157611da0611adb565b5b6000611daf84828501611c4c565b91505092915050565b600080fd5b7f4e487b7100000000000000000000000000000000000000000000000000000000600052604160045260246000fd5b611df582611bbf565b810181811067ffffffffffffffff82111715611e1457611e13611dbd565b5b80604052505050565b6000611e27611ad1565b9050611e338282611dec565b919050565b600067ffffffffffffffff821115611e5357611e52611dbd565b5b602082029050602081019050919050565b600080fd5b6000611e7c611e7784611e38565b611e1d565b90508083825260208201905060208402830185811115611e9f57611e9e611e64565b5b835b81811015611ec85780611eb48882611b2e565b845260208401935050602081019050611ea1565b5050509392505050565b600082601f830112611ee757611ee6611db8565b5b8135611ef7848260208601611e69565b91505092915050565b600067ffffffffffffffff821115611f1b57611f1a611dbd565b5b602082029050602081019050919050565b6000611f3f611f3a84611f00565b611e1d565b90508083825260208201905060208402830185811115611f6257611f61611e64565b5b835b81811015611f8b5780611f778882611c4c565b845260208401935050602081019050611f64565b5050509392505050565b600082601f830112611faa57611fa9611db8565b5b8135611fba848260208601611f2c565b91505092915050565b60008060408385031215611fda57611fd9611adb565b5b600083013567ffffffffffffffff811115611ff857611ff7611ae0565b5b61200485828601611ed2565b925050602083013567ffffffffffffffff81111561202557612024611ae0565b5b61203185828601611f95565b9150509250929050565b6000806040838503121561205257612051611adb565b5b600061206085828601611b2e565b925050602061207185828601611b2e565b9150509250929050565b7f43616c6c6572206973206e6f742061206d696e74657200000000000000000000600082015250565b60006120b1601683611b7b565b91506120bc8261207b565b602082019050919050565b600060208201905081810360008301526120e0816120a4565b9050919050565b7f4e487b7100000000000000000000000000000000000000000000000000000000600052601160045260246000fd5b600061212182611c2b565b915061212c83611c2b565b9250817fffffffffffffffffffffffffffffffffffffffffffffffffffffffffffffffff0483118215151615612165576121646120e7565b5b828202905092915050565b600061217b82611c2b565b91507fffffffffffffffffffffffffffffffffffffffffffffffffffffffffffffffff82036121ad576121ac6120e7565b5b600182019050919050565b7f4e487b7100000000000000000000000000000000000000000000000000000000600052602260045260246000fd5b600060028204905060018216806121ff57607f821691505b602082108103612212576122116121b8565b5b50919050565b7f43616e6e6f74207472616e7366657220746f20746865207a65726f206164647260008201527f6573730000000000000000000000000000000000000000000000000000000000602082015250565b6000612274602383611b7b565b915061227f82612218565b604082019050919050565b600060208201905081810360008301526122a381612267565b9050919050565b60006122b582611c2b565b91506122c083611c2b565b9250827fffffffffffffffffffffffffffffffffffffffffffffffffffffffffffffffff038211156122f5576122f46120e7565b5b828201905092915050565b7f43616e6e6f74206d696e74206d6f7265207468616e206d617820737570706c79600082015250565b6000612336602083611b7b565b915061234182612300565b602082019050919050565b6000602082019050818103600083015261236581612329565b9050919050565b7f496e646976696475616c206461696c79206c696d697420657863656564656400600082015250565b60006123a2601f83611b7b565b91506123ad8261236c565b602082019050919050565b600060208201905081810360008301526123d181612395565b9050919050565b7f526563697069656e747320616e6420616d6f756e747320617272617973206d7560008201527f73742068617665207468652073616d65206c656e677468000000000000000000602082015250565b6000612434603783611b7b565b915061243f826123d8565b604082019050919050565b6000602082019050818103600083015261246381612427565b9050919050565b7f4e487b7100000000000000000000000000000000000000000000000000000000600052603260045260246000fd5b7f45524332303a2064656372656173656420616c6c6f77616e63652062656c6f7760008201527f207a65726f000000000000000000000000000000000000000000000000000000602082015250565b60006124f5602583611b7b565b915061250082612499565b604082019050919050565b60006020820190508181036000830152612524816124e8565b9050919050565b7f45524332303a20617070726f76652066726f6d20746865207a65726f2061646460008201527f7265737300000000000000000000000000000000000000000000000000000000602082015250565b6000612587602483611b7b565b91506125928261252b565b604082019050919050565b600060208201905081810360008301526125b68161257a565b9050919050565b7f45524332303a20617070726f766520746f20746865207a65726f20616464726560008201527f7373000000000000000000000000000000000000000000000000000000000000602082015250565b6000612619602283611b7b565b9150612624826125bd565b604082019050919050565b600060208201905081810360008301526126488161260c565b9050919050565b7f4e487b7100000000000000000000000000000000000000000000000000000000600052601260045260246000fd5b600061268982611c2b565b915061269483611c2b565b9250826126a4576126a361264f565b5b828204905092915050565b7f45524332303a206d696e7420746f20746865207a65726f206164647265737300600082015250565b60006126e5601f83611b7b565b91506126f0826126af565b602082019050919050565b60006020820190508181036000830152612714816126d8565b9050919050565b600061272682611c2b565b915061273183611c2b565b925082821015612744576127436120e7565b5b828203905092915050565b7f4e487b7100000000000000000000000000000000000000000000000000000000600052603160045260246000fd5b7f45524332303a20696e73756666696369656e7420616c6c6f77616e6365000000600082015250565b60006127b4601d83611b7b565b91506127bf8261277e565b602082019050919050565b600060208201905081810360008301526127e3816127a7565b9050919050565b7f45524332303a207472616e736665722066726f6d20746865207a65726f20616460008201527f6472657373000000000000000000000000000000000000000000000000000000602082015250565b6000612846602583611b7b565b9150612851826127ea565b604082019050919050565b6000602082019050818103600083015261287581612839565b9050919050565b7f45524332303a207472616e7366657220746f20746865207a65726f206164647260008201527f6573730000000000000000000000000000000000000000000000000000000000602082015250565b60006128d8602383611b7b565b91506128e38261287c565b604082019050919050565b60006020820190508181036000830152612907816128cb565b9050919050565b7f45524332303a207472616e7366657220616d6f756e742065786365656473206260008201527f616c616e63650000000000000000000000000000000000000000000000000000602082015250565b600061296a602683611b7b565b91506129758261290e565b604082019050919050565b600060208201905081810360008301526129998161295d565b905091905056fea2646970667358221220845560cb04049cd013c639f52703ad4f6093e81c5c31cf5d6f9948e92c6a227f64736f6c634300080d0033",
  "immutableReferences": {},
  "source": "// SPDX-License-Identifier: MIT\r\npragma solidity 0.8.13;\r\n\r\nimport \"@openzeppelin/contracts/token/ERC20/ERC20.sol\";\r\nimport \"@openzeppelin/contracts/utils/structs/EnumerableSet.sol\";\r\n\r\ncontract CustomToken is ERC20 {\r\n    using EnumerableSet for EnumerableSet.AddressSet;\r\n    EnumerableSet.AddressSet private mintingAdmins;\r\n\r\n    uint256 private _maxSupply;\r\n    uint256 private TMAX;\r\n    uint256 private lastResetTimestamp;\r\n    mapping(address => uint256) private dailyMintedAmounts; // Track daily mints per admin\r\n\r\n    mapping(uint256 => mapping(address => bool)) private tmaxVotes;\r\n    mapping(address => mapping(address => bool)) private AddMintAdminVotes;\r\n    mapping(address => mapping(address => bool)) private RemoveMintAdminVotes;\r\n\r\n    constructor(\r\n        uint256 maxSupply_,\r\n        address[] memory mintingAdmins_,\r\n        uint256 tmax_ // Add the TMAX parameter\r\n    ) ERC20(\"CustomToken\", \"CTK\") {\r\n        _maxSupply = maxSupply_;\r\n        TMAX = tmax_;\r\n        for (uint256 i = 0; i < mintingAdmins_.length; i++) {\r\n            mintingAdmins.add(mintingAdmins_[i]);\r\n        }\r\n    }\r\n\r\n    modifier validRecipient(address _recipient) {\r\n        require(\r\n            _recipient != address(0),\r\n            \"Cannot transfer to the zero address\"\r\n        );\r\n        _;\r\n    }\r\n\r\n    modifier validSupply(uint256 _amount) {\r\n        require(\r\n            totalSupply() + _amount <= maxSupply(),\r\n            \"Cannot mint more than max supply\"\r\n        );\r\n        _;\r\n    }\r\n\r\n    modifier onlyMinter() {\r\n        require(mintingAdmins.contains(msg.sender), \"Caller is not a minter\");\r\n        _;\r\n    }\r\n\r\n    function maxSupply() public view virtual returns (uint256) {\r\n        return _maxSupply;\r\n    }\r\n\r\n    function GetTMAX() public view virtual returns (uint256) {\r\n        return TMAX;\r\n    }\r\n\r\n    function mint(\r\n        address to,\r\n        uint256 amount\r\n    ) public validSupply(amount) onlyMinter {\r\n        resetDailyMintedAmounts();\r\n        require(\r\n            dailyMintedAmounts[msg.sender] + amount <= TMAX,\r\n            \"Individual daily limit exceeded\"\r\n        );\r\n        dailyMintedAmounts[msg.sender] += amount;\r\n        _mint(to, amount);\r\n    }\r\n\r\n    function mintBatch(\r\n        address[] memory recipients,\r\n        uint256[] memory amounts\r\n    ) public onlyMinter {\r\n        require(\r\n            recipients.length == amounts.length,\r\n            \"Recipients and amounts arrays must have the same length\"\r\n        );\r\n\r\n        for (uint i = 0; i < recipients.length; i++) {\r\n            mint(recipients[i], amounts[i]);\r\n        }\r\n    }\r\n\r\n    function proposeTMAX(uint256 _tmax) public onlyMinter {\r\n        tmaxVotes[_tmax][msg.sender] = true;\r\n        uint256 votes = getVoteCount(tmaxVotes[_tmax]);\r\n        if (votes * 2 > mintingAdmins.length()) {\r\n            TMAX = _tmax;\r\n            for (uint256 i = 0; i < mintingAdmins.length(); i++) {\r\n                address adminAddress = mintingAdmins.at(i);\r\n                delete tmaxVotes[_tmax][adminAddress];\r\n            }\r\n        }\r\n    }\r\n\r\n    function addMintAdmin(address admin) public onlyMinter {\r\n        AddMintAdminVotes[admin][msg.sender] = true;\r\n        uint256 votes = getVoteCount(AddMintAdminVotes[admin]);\r\n        if (votes * 2 > mintingAdmins.length()) {\r\n            mintingAdmins.add(admin);\r\n            for (uint256 i = 0; i < mintingAdmins.length(); i++) {\r\n                address adminAddress = mintingAdmins.at(i);\r\n                delete AddMintAdminVotes[admin][adminAddress];\r\n            }\r\n        }\r\n    }\r\n\r\n    function removeMintAdmin(address admin) public onlyMinter {\r\n        RemoveMintAdminVotes[admin][msg.sender] = true;\r\n        uint256 votes = getVoteCount(RemoveMintAdminVotes[admin]);\r\n        if (votes * 2 > mintingAdmins.length()) {\r\n            mintingAdmins.remove(admin);\r\n            for (uint256 i = 0; i < mintingAdmins.length(); i++) {\r\n                address adminAddress = mintingAdmins.at(i);\r\n                delete RemoveMintAdminVotes[admin][adminAddress];\r\n            }\r\n        }\r\n    }\r\n\r\n    function transfer(\r\n        address recipient,\r\n        uint256 amount\r\n    ) public override validRecipient(recipient) returns (bool) {\r\n        return super.transfer(recipient, amount);\r\n    }\r\n\r\n    function transferFrom(\r\n        address sender,\r\n        address recipient,\r\n        uint256 amount\r\n    ) public override validRecipient(recipient) returns (bool) {\r\n        return super.transferFrom(sender, recipient, amount);\r\n    }\r\n\r\n    function resetDailyMintedAmounts() internal {\r\n        uint256 currentDay = block.timestamp / (24 * 60 * 60); // Approx. day based on timestamp\r\n        if (currentDay > lastResetTimestamp) {\r\n            lastResetTimestamp = currentDay;\r\n            for (uint256 i = 0; i < mintingAdmins.length(); i++) {\r\n                address adminAddress = mintingAdmins.at(i);\r\n                dailyMintedAmounts[adminAddress] = 0;\r\n            }\r\n        }\r\n    }\r\n\r\n    function getVoteCount(\r\n        mapping(address => bool) storage votes\r\n    ) internal view returns (uint256) {\r\n        uint256 count = 0;\r\n        for (uint256 i = 0; i < EnumerableSet.length(mintingAdmins); i++) {\r\n            if (votes[EnumerableSet.at(mintingAdmins, i)]) {\r\n                count++;\r\n            }\r\n        }\r\n        return count;\r\n    }\r\n}\r\n",
  "sourcePath": "C:\\Users\\jiriv\\Documents\\kola\\multisig-wallet-2024\\contracts\\ModifiedERC20.sol",
  "compiler": {
    "name": "solc",
    "version": "0.8.13+commit.abaa5c0e.Emscripten.clang"
  },
  "schemaVersion": "3.4.16",
  "updatedAt": "2024-04-11T12:01:11.186Z",
  "devdoc": {
    "kind": "dev",
    "methods": {
      "allowance(address,address)": {
        "details": "See {IERC20-allowance}."
      },
      "approve(address,uint256)": {
        "details": "See {IERC20-approve}. NOTE: If `amount` is the maximum `uint256`, the allowance is not updated on `transferFrom`. This is semantically equivalent to an infinite approval. Requirements: - `spender` cannot be the zero address."
      },
      "balanceOf(address)": {
        "details": "See {IERC20-balanceOf}."
      },
      "decimals()": {
        "details": "Returns the number of decimals used to get its user representation. For example, if `decimals` equals `2`, a balance of `505` tokens should be displayed to a user as `5.05` (`505 / 10 ** 2`). Tokens usually opt for a value of 18, imitating the relationship between Ether and Wei. This is the default value returned by this function, unless it's overridden. NOTE: This information is only used for _display_ purposes: it in no way affects any of the arithmetic of the contract, including {IERC20-balanceOf} and {IERC20-transfer}."
      },
      "decreaseAllowance(address,uint256)": {
        "details": "Atomically decreases the allowance granted to `spender` by the caller. This is an alternative to {approve} that can be used as a mitigation for problems described in {IERC20-approve}. Emits an {Approval} event indicating the updated allowance. Requirements: - `spender` cannot be the zero address. - `spender` must have allowance for the caller of at least `subtractedValue`."
      },
      "increaseAllowance(address,uint256)": {
        "details": "Atomically increases the allowance granted to `spender` by the caller. This is an alternative to {approve} that can be used as a mitigation for problems described in {IERC20-approve}. Emits an {Approval} event indicating the updated allowance. Requirements: - `spender` cannot be the zero address."
      },
      "name()": {
        "details": "Returns the name of the token."
      },
      "symbol()": {
        "details": "Returns the symbol of the token, usually a shorter version of the name."
      },
      "totalSupply()": {
        "details": "See {IERC20-totalSupply}."
      }
    },
    "version": 1
  },
  "userdoc": {
    "kind": "user",
    "methods": {},
    "version": 1
  }
}