{
  "contractName": "CustomToken",
  "abi": [
    {
      "inputs": [
        {
          "internalType": "uint256",
          "name": "maxSupply_",
          "type": "uint256"
        },
        {
          "internalType": "address[]",
          "name": "mintingAdmins_",
          "type": "address[]"
        },
        {
          "internalType": "uint256",
          "name": "tmax_",
          "type": "uint256"
        }
      ],
      "stateMutability": "nonpayable",
      "type": "constructor"
    },
    {
      "anonymous": false,
      "inputs": [
        {
          "indexed": true,
          "internalType": "address",
          "name": "owner",
          "type": "address"
        },
        {
          "indexed": true,
          "internalType": "address",
          "name": "spender",
          "type": "address"
        },
        {
          "indexed": false,
          "internalType": "uint256",
          "name": "value",
          "type": "uint256"
        }
      ],
      "name": "Approval",
      "type": "event"
    },
    {
      "anonymous": false,
      "inputs": [
        {
          "indexed": true,
          "internalType": "address",
          "name": "from",
          "type": "address"
        },
        {
          "indexed": true,
          "internalType": "address",
          "name": "to",
          "type": "address"
        },
        {
          "indexed": false,
          "internalType": "uint256",
          "name": "value",
          "type": "uint256"
        }
      ],
      "name": "Transfer",
      "type": "event"
    },
    {
      "inputs": [],
      "name": "TMAX",
      "outputs": [
        {
          "internalType": "uint256",
          "name": "",
          "type": "uint256"
        }
      ],
      "stateMutability": "view",
      "type": "function"
    },
    {
      "inputs": [
        {
          "internalType": "address",
          "name": "owner",
          "type": "address"
        },
        {
          "internalType": "address",
          "name": "spender",
          "type": "address"
        }
      ],
      "name": "allowance",
      "outputs": [
        {
          "internalType": "uint256",
          "name": "",
          "type": "uint256"
        }
      ],
      "stateMutability": "view",
      "type": "function"
    },
    {
      "inputs": [
        {
          "internalType": "address",
          "name": "spender",
          "type": "address"
        },
        {
          "internalType": "uint256",
          "name": "amount",
          "type": "uint256"
        }
      ],
      "name": "approve",
      "outputs": [
        {
          "internalType": "bool",
          "name": "",
          "type": "bool"
        }
      ],
      "stateMutability": "nonpayable",
      "type": "function"
    },
    {
      "inputs": [
        {
          "internalType": "address",
          "name": "account",
          "type": "address"
        }
      ],
      "name": "balanceOf",
      "outputs": [
        {
          "internalType": "uint256",
          "name": "",
          "type": "uint256"
        }
      ],
      "stateMutability": "view",
      "type": "function"
    },
    {
      "inputs": [
        {
          "internalType": "address",
          "name": "",
          "type": "address"
        }
      ],
      "name": "dailyMintedAmounts",
      "outputs": [
        {
          "internalType": "uint256",
          "name": "",
          "type": "uint256"
        }
      ],
      "stateMutability": "view",
      "type": "function"
    },
    {
      "inputs": [],
      "name": "decimals",
      "outputs": [
        {
          "internalType": "uint8",
          "name": "",
          "type": "uint8"
        }
      ],
      "stateMutability": "view",
      "type": "function"
    },
    {
      "inputs": [
        {
          "internalType": "address",
          "name": "spender",
          "type": "address"
        },
        {
          "internalType": "uint256",
          "name": "subtractedValue",
          "type": "uint256"
        }
      ],
      "name": "decreaseAllowance",
      "outputs": [
        {
          "internalType": "bool",
          "name": "",
          "type": "bool"
        }
      ],
      "stateMutability": "nonpayable",
      "type": "function"
    },
    {
      "inputs": [
        {
          "internalType": "address",
          "name": "spender",
          "type": "address"
        },
        {
          "internalType": "uint256",
          "name": "addedValue",
          "type": "uint256"
        }
      ],
      "name": "increaseAllowance",
      "outputs": [
        {
          "internalType": "bool",
          "name": "",
          "type": "bool"
        }
      ],
      "stateMutability": "nonpayable",
      "type": "function"
    },
    {
      "inputs": [],
      "name": "name",
      "outputs": [
        {
          "internalType": "string",
          "name": "",
          "type": "string"
        }
      ],
      "stateMutability": "view",
      "type": "function"
    },
    {
      "inputs": [],
      "name": "symbol",
      "outputs": [
        {
          "internalType": "string",
          "name": "",
          "type": "string"
        }
      ],
      "stateMutability": "view",
      "type": "function"
    },
    {
      "inputs": [
        {
          "internalType": "uint256",
          "name": "",
          "type": "uint256"
        },
        {
          "internalType": "address",
          "name": "",
          "type": "address"
        }
      ],
      "name": "tmaxVotes",
      "outputs": [
        {
          "internalType": "bool",
          "name": "",
          "type": "bool"
        }
      ],
      "stateMutability": "view",
      "type": "function"
    },
    {
      "inputs": [],
      "name": "totalSupply",
      "outputs": [
        {
          "internalType": "uint256",
          "name": "",
          "type": "uint256"
        }
      ],
      "stateMutability": "view",
      "type": "function"
    },
    {
      "inputs": [],
      "name": "maxSupply",
      "outputs": [
        {
          "internalType": "uint256",
          "name": "",
          "type": "uint256"
        }
      ],
      "stateMutability": "view",
      "type": "function"
    },
    {
      "inputs": [
        {
          "internalType": "address",
          "name": "to",
          "type": "address"
        },
        {
          "internalType": "uint256",
          "name": "amount",
          "type": "uint256"
        }
      ],
      "name": "mint",
      "outputs": [],
      "stateMutability": "nonpayable",
      "type": "function"
    },
    {
      "inputs": [
        {
          "internalType": "uint256",
          "name": "_tmax",
          "type": "uint256"
        }
      ],
      "name": "proposeTMAX",
      "outputs": [],
      "stateMutability": "nonpayable",
      "type": "function"
    },
    {
      "inputs": [
        {
          "internalType": "address",
          "name": "recipient",
          "type": "address"
        },
        {
          "internalType": "uint256",
          "name": "amount",
          "type": "uint256"
        }
      ],
      "name": "transfer",
      "outputs": [
        {
          "internalType": "bool",
          "name": "",
          "type": "bool"
        }
      ],
      "stateMutability": "nonpayable",
      "type": "function"
    },
    {
      "inputs": [
        {
          "internalType": "address",
          "name": "sender",
          "type": "address"
        },
        {
          "internalType": "address",
          "name": "recipient",
          "type": "address"
        },
        {
          "internalType": "uint256",
          "name": "amount",
          "type": "uint256"
        }
      ],
      "name": "transferFrom",
      "outputs": [
        {
          "internalType": "bool",
          "name": "",
          "type": "bool"
        }
      ],
      "stateMutability": "nonpayable",
      "type": "function"
    }
  ],
  "bytecode": "0x60806040523480156200001157600080fd5b50604051620026bb380380620026bb8339818101604052810190620000379190620004f9565b6040518060400160405280600b81526020017f437573746f6d546f6b656e0000000000000000000000000000000000000000008152506040518060400160405280600381526020017f43544b00000000000000000000000000000000000000000000000000000000008152508160039080519060200190620000bb92919062000220565b508060049080519060200190620000d492919062000220565b505050826007819055508060088190555060005b825181101562000141576200012a8382815181106200010c576200010b62000574565b5b602002602001015160056200014b60201b62000b371790919060201c565b5080806200013890620005d2565b915050620000e8565b5050505062000683565b60006200017b836000018373ffffffffffffffffffffffffffffffffffffffff1660001b6200018360201b60201c565b905092915050565b6000620001978383620001fd60201b60201c565b620001f2578260000182908060018154018082558091505060019003906000526020600020016000909190919091505582600001805490508360010160008481526020019081526020016000208190555060019050620001f7565b600090505b92915050565b600080836001016000848152602001908152602001600020541415905092915050565b8280546200022e906200064e565b90600052602060002090601f0160209004810192826200025257600085556200029e565b82601f106200026d57805160ff19168380011785556200029e565b828001600101855582156200029e579182015b828111156200029d57825182559160200191906001019062000280565b5b509050620002ad9190620002b1565b5090565b5b80821115620002cc576000816000905550600101620002b2565b5090565b6000604051905090565b600080fd5b600080fd5b6000819050919050565b620002f981620002e4565b81146200030557600080fd5b50565b6000815190506200031981620002ee565b92915050565b600080fd5b6000601f19601f8301169050919050565b7f4e487b7100000000000000000000000000000000000000000000000000000000600052604160045260246000fd5b6200036f8262000324565b810181811067ffffffffffffffff8211171562000391576200039062000335565b5b80604052505050565b6000620003a6620002d0565b9050620003b4828262000364565b919050565b600067ffffffffffffffff821115620003d757620003d662000335565b5b602082029050602081019050919050565b600080fd5b600073ffffffffffffffffffffffffffffffffffffffff82169050919050565b60006200041a82620003ed565b9050919050565b6200042c816200040d565b81146200043857600080fd5b50565b6000815190506200044c8162000421565b92915050565b6000620004696200046384620003b9565b6200039a565b905080838252602082019050602084028301858111156200048f576200048e620003e8565b5b835b81811015620004bc5780620004a788826200043b565b84526020840193505060208101905062000491565b5050509392505050565b600082601f830112620004de57620004dd6200031f565b5b8151620004f084826020860162000452565b91505092915050565b600080600060608486031215620005155762000514620002da565b5b6000620005258682870162000308565b935050602084015167ffffffffffffffff811115620005495762000548620002df565b5b6200055786828701620004c6565b92505060406200056a8682870162000308565b9150509250925092565b7f4e487b7100000000000000000000000000000000000000000000000000000000600052603260045260246000fd5b7f4e487b7100000000000000000000000000000000000000000000000000000000600052601160045260246000fd5b6000620005df82620002e4565b91507fffffffffffffffffffffffffffffffffffffffffffffffffffffffffffffffff8203620006145762000613620005a3565b5b600182019050919050565b7f4e487b7100000000000000000000000000000000000000000000000000000000600052602260045260246000fd5b600060028204905060018216806200066757607f821691505b6020821081036200067d576200067c6200061f565b5b50919050565b61202880620006936000396000f3fe608060405234801561001057600080fd5b506004361061010b5760003560e01c80634ff6c133116100a257806395d89b411161007157806395d89b41146102e0578063a457c2d7146102fe578063a9059cbb1461032e578063d5abeb011461035e578063dd62ed3e1461037c5761010b565b80634ff6c13314610246578063545dcac31461026257806370a08231146102805780638461eef8146102b05761010b565b806323b872dd116100de57806323b872dd146101ac578063313ce567146101dc57806339509351146101fa57806340c10f191461022a5761010b565b8063020edad61461011057806306fdde0314610140578063095ea7b31461015e57806318160ddd1461018e575b600080fd5b61012a600480360381019061012591906114cd565b6103ac565b6040516101379190611513565b60405180910390f35b6101486103c4565b60405161015591906115c7565b60405180910390f35b61017860048036038101906101739190611615565b610456565b6040516101859190611670565b60405180910390f35b610196610479565b6040516101a39190611513565b60405180910390f35b6101c660048036038101906101c1919061168b565b610483565b6040516101d39190611670565b60405180910390f35b6101e461050a565b6040516101f191906116fa565b60405180910390f35b610214600480360381019061020f9190611615565b610513565b6040516102219190611670565b60405180910390f35b610244600480360381019061023f9190611615565b61054a565b005b610260600480360381019061025b9190611715565b6106f6565b005b61026a61089b565b6040516102779190611513565b60405180910390f35b61029a600480360381019061029591906114cd565b6108a1565b6040516102a79190611513565b60405180910390f35b6102ca60048036038101906102c59190611742565b6108e9565b6040516102d79190611670565b60405180910390f35b6102e8610918565b6040516102f591906115c7565b60405180910390f35b61031860048036038101906103139190611615565b6109aa565b6040516103259190611670565b60405180910390f35b61034860048036038101906103439190611615565b610a21565b6040516103559190611670565b60405180910390f35b610366610aa6565b6040516103739190611513565b60405180910390f35b61039660048036038101906103919190611782565b610ab0565b6040516103a39190611513565b60405180910390f35b600a6020528060005260406000206000915090505481565b6060600380546103d3906117f1565b80601f01602080910402602001604051908101604052809291908181526020018280546103ff906117f1565b801561044c5780601f106104215761010080835404028352916020019161044c565b820191906000526020600020905b81548152906001019060200180831161042f57829003601f168201915b5050505050905090565b600080610461610b67565b905061046e818585610b6f565b600191505092915050565b6000600254905090565b600082600073ffffffffffffffffffffffffffffffffffffffff168173ffffffffffffffffffffffffffffffffffffffff16036104f5576040517f08c379a00000000000000000000000000000000000000000000000000000000081526004016104ec90611894565b60405180910390fd5b610500858585610d38565b9150509392505050565b60006012905090565b60008061051e610b67565b905061053f8185856105308589610ab0565b61053a91906118e3565b610b6f565b600191505092915050565b80610553610aa6565b8161055c610479565b61056691906118e3565b11156105a7576040517f08c379a000000000000000000000000000000000000000000000000000000000815260040161059e90611985565b60405180910390fd5b6105bb336005610d6790919063ffffffff16565b6105fa576040517f08c379a00000000000000000000000000000000000000000000000000000000081526004016105f1906119f1565b60405180910390fd5b610602610d97565b60085482600a60003373ffffffffffffffffffffffffffffffffffffffff1673ffffffffffffffffffffffffffffffffffffffff1681526020019081526020016000205461065091906118e3565b1115610691576040517f08c379a000000000000000000000000000000000000000000000000000000000815260040161068890611a5d565b60405180910390fd5b81600a60003373ffffffffffffffffffffffffffffffffffffffff1673ffffffffffffffffffffffffffffffffffffffff16815260200190815260200160002060008282546106e091906118e3565b925050819055506106f18383610e45565b505050565b61070a336005610d6790919063ffffffff16565b610749576040517f08c379a0000000000000000000000000000000000000000000000000000000008152600401610740906119f1565b60405180910390fd5b6001600b600083815260200190815260200160002060003373ffffffffffffffffffffffffffffffffffffffff1673ffffffffffffffffffffffffffffffffffffffff16815260200190815260200160002060006101000a81548160ff02191690831515021790555060006107cf600b6000848152602001908152602001600020610f9b565b90506107db600561103d565b6002826107e89190611a7d565b1115610897578160088190555060005b610802600561103d565b81101561089557600061081f82600561105290919063ffffffff16565b9050600b600085815260200190815260200160002060008273ffffffffffffffffffffffffffffffffffffffff1673ffffffffffffffffffffffffffffffffffffffff16815260200190815260200160002060006101000a81549060ff021916905550808061088d90611ad7565b9150506107f8565b505b5050565b60085481565b60008060008373ffffffffffffffffffffffffffffffffffffffff1673ffffffffffffffffffffffffffffffffffffffff168152602001908152602001600020549050919050565b600b6020528160005260406000206020528060005260406000206000915091509054906101000a900460ff1681565b606060048054610927906117f1565b80601f0160208091040260200160405190810160405280929190818152602001828054610953906117f1565b80156109a05780601f10610975576101008083540402835291602001916109a0565b820191906000526020600020905b81548152906001019060200180831161098357829003601f168201915b5050505050905090565b6000806109b5610b67565b905060006109c38286610ab0565b905083811015610a08576040517f08c379a00000000000000000000000000000000000000000000000000000000081526004016109ff90611b91565b60405180910390fd5b610a158286868403610b6f565b60019250505092915050565b600082600073ffffffffffffffffffffffffffffffffffffffff168173ffffffffffffffffffffffffffffffffffffffff1603610a93576040517f08c379a0000000000000000000000000000000000000000000000000000000008152600401610a8a90611894565b60405180910390fd5b610a9d848461106c565b91505092915050565b6000600754905090565b6000600160008473ffffffffffffffffffffffffffffffffffffffff1673ffffffffffffffffffffffffffffffffffffffff16815260200190815260200160002060008373ffffffffffffffffffffffffffffffffffffffff1673ffffffffffffffffffffffffffffffffffffffff16815260200190815260200160002054905092915050565b6000610b5f836000018373ffffffffffffffffffffffffffffffffffffffff1660001b61108f565b905092915050565b600033905090565b600073ffffffffffffffffffffffffffffffffffffffff168373ffffffffffffffffffffffffffffffffffffffff1603610bde576040517f08c379a0000000000000000000000000000000000000000000000000000000008152600401610bd590611c23565b60405180910390fd5b600073ffffffffffffffffffffffffffffffffffffffff168273ffffffffffffffffffffffffffffffffffffffff1603610c4d576040517f08c379a0000000000000000000000000000000000000000000000000000000008152600401610c4490611cb5565b60405180910390fd5b80600160008573ffffffffffffffffffffffffffffffffffffffff1673ffffffffffffffffffffffffffffffffffffffff16815260200190815260200160002060008473ffffffffffffffffffffffffffffffffffffffff1673ffffffffffffffffffffffffffffffffffffffff168152602001908152602001600020819055508173ffffffffffffffffffffffffffffffffffffffff168373ffffffffffffffffffffffffffffffffffffffff167f8c5be1e5ebec7d5bd14f71427d1e84f3dd0314c0f7b2291e5b200ac8c7c3b92583604051610d2b9190611513565b60405180910390a3505050565b600080610d43610b67565b9050610d508582856110ff565b610d5b85858561118b565b60019150509392505050565b6000610d8f836000018373ffffffffffffffffffffffffffffffffffffffff1660001b611401565b905092915050565b60006201518042610da89190611d04565b9050600954811115610e42578060098190555060005b610dc8600561103d565b811015610e40576000610de582600561105290919063ffffffff16565b90506000600a60008373ffffffffffffffffffffffffffffffffffffffff1673ffffffffffffffffffffffffffffffffffffffff16815260200190815260200160002081905550508080610e3890611ad7565b915050610dbe565b505b50565b600073ffffffffffffffffffffffffffffffffffffffff168273ffffffffffffffffffffffffffffffffffffffff1603610eb4576040517f08c379a0000000000000000000000000000000000000000000000000000000008152600401610eab90611d81565b60405180910390fd5b610ec060008383611424565b8060026000828254610ed291906118e3565b92505081905550806000808473ffffffffffffffffffffffffffffffffffffffff1673ffffffffffffffffffffffffffffffffffffffff168152602001908152602001600020600082825401925050819055508173ffffffffffffffffffffffffffffffffffffffff16600073ffffffffffffffffffffffffffffffffffffffff167fddf252ad1be2c89b69c2b068fc378daa952ba7f163c4a11628f55a4df523b3ef83604051610f839190611513565b60405180910390a3610f9760008383611429565b5050565b6000806000905060005b610faf600561103d565b81101561103357836000610fc4600584611052565b73ffffffffffffffffffffffffffffffffffffffff1673ffffffffffffffffffffffffffffffffffffffff16815260200190815260200160002060009054906101000a900460ff161561102057818061101c90611ad7565b9250505b808061102b90611ad7565b915050610fa5565b5080915050919050565b600061104b8260000161142e565b9050919050565b6000611061836000018361143f565b60001c905092915050565b600080611077610b67565b905061108481858561118b565b600191505092915050565b600061109b8383611401565b6110f45782600001829080600181540180825580915050600190039060005260206000200160009091909190915055826000018054905083600101600084815260200190815260200160002081905550600190506110f9565b600090505b92915050565b600061110b8484610ab0565b90507fffffffffffffffffffffffffffffffffffffffffffffffffffffffffffffffff81146111855781811015611177576040517f08c379a000000000000000000000000000000000000000000000000000000000815260040161116e90611ded565b60405180910390fd5b6111848484848403610b6f565b5b50505050565b600073ffffffffffffffffffffffffffffffffffffffff168373ffffffffffffffffffffffffffffffffffffffff16036111fa576040517f08c379a00000000000000000000000000000000000000000000000000000000081526004016111f190611e7f565b60405180910390fd5b600073ffffffffffffffffffffffffffffffffffffffff168273ffffffffffffffffffffffffffffffffffffffff1603611269576040517f08c379a000000000000000000000000000000000000000000000000000000000815260040161126090611f11565b60405180910390fd5b611274838383611424565b60008060008573ffffffffffffffffffffffffffffffffffffffff1673ffffffffffffffffffffffffffffffffffffffff168152602001908152602001600020549050818110156112fa576040517f08c379a00000000000000000000000000000000000000000000000000000000081526004016112f190611fa3565b60405180910390fd5b8181036000808673ffffffffffffffffffffffffffffffffffffffff1673ffffffffffffffffffffffffffffffffffffffff16815260200190815260200160002081905550816000808573ffffffffffffffffffffffffffffffffffffffff1673ffffffffffffffffffffffffffffffffffffffff168152602001908152602001600020600082825401925050819055508273ffffffffffffffffffffffffffffffffffffffff168473ffffffffffffffffffffffffffffffffffffffff167fddf252ad1be2c89b69c2b068fc378daa952ba7f163c4a11628f55a4df523b3ef846040516113e89190611513565b60405180910390a36113fb848484611429565b50505050565b600080836001016000848152602001908152602001600020541415905092915050565b505050565b505050565b600081600001805490509050919050565b600082600001828154811061145757611456611fc3565b5b9060005260206000200154905092915050565b600080fd5b600073ffffffffffffffffffffffffffffffffffffffff82169050919050565b600061149a8261146f565b9050919050565b6114aa8161148f565b81146114b557600080fd5b50565b6000813590506114c7816114a1565b92915050565b6000602082840312156114e3576114e261146a565b5b60006114f1848285016114b8565b91505092915050565b6000819050919050565b61150d816114fa565b82525050565b60006020820190506115286000830184611504565b92915050565b600081519050919050565b600082825260208201905092915050565b60005b8381101561156857808201518184015260208101905061154d565b83811115611577576000848401525b50505050565b6000601f19601f8301169050919050565b60006115998261152e565b6115a38185611539565b93506115b381856020860161154a565b6115bc8161157d565b840191505092915050565b600060208201905081810360008301526115e1818461158e565b905092915050565b6115f2816114fa565b81146115fd57600080fd5b50565b60008135905061160f816115e9565b92915050565b6000806040838503121561162c5761162b61146a565b5b600061163a858286016114b8565b925050602061164b85828601611600565b9150509250929050565b60008115159050919050565b61166a81611655565b82525050565b60006020820190506116856000830184611661565b92915050565b6000806000606084860312156116a4576116a361146a565b5b60006116b2868287016114b8565b93505060206116c3868287016114b8565b92505060406116d486828701611600565b9150509250925092565b600060ff82169050919050565b6116f4816116de565b82525050565b600060208201905061170f60008301846116eb565b92915050565b60006020828403121561172b5761172a61146a565b5b600061173984828501611600565b91505092915050565b600080604083850312156117595761175861146a565b5b600061176785828601611600565b9250506020611778858286016114b8565b9150509250929050565b600080604083850312156117995761179861146a565b5b60006117a7858286016114b8565b92505060206117b8858286016114b8565b9150509250929050565b7f4e487b7100000000000000000000000000000000000000000000000000000000600052602260045260246000fd5b6000600282049050600182168061180957607f821691505b60208210810361181c5761181b6117c2565b5b50919050565b7f43616e6e6f74207472616e7366657220746f20746865207a65726f206164647260008201527f6573730000000000000000000000000000000000000000000000000000000000602082015250565b600061187e602383611539565b915061188982611822565b604082019050919050565b600060208201905081810360008301526118ad81611871565b9050919050565b7f4e487b7100000000000000000000000000000000000000000000000000000000600052601160045260246000fd5b60006118ee826114fa565b91506118f9836114fa565b9250827fffffffffffffffffffffffffffffffffffffffffffffffffffffffffffffffff0382111561192e5761192d6118b4565b5b828201905092915050565b7f43616e6e6f74206d696e74206d6f7265207468616e206d617820737570706c79600082015250565b600061196f602083611539565b915061197a82611939565b602082019050919050565b6000602082019050818103600083015261199e81611962565b9050919050565b7f43616c6c6572206973206e6f742061206d696e74657200000000000000000000600082015250565b60006119db601683611539565b91506119e6826119a5565b602082019050919050565b60006020820190508181036000830152611a0a816119ce565b9050919050565b7f496e646976696475616c206461696c79206c696d697420657863656564656400600082015250565b6000611a47601f83611539565b9150611a5282611a11565b602082019050919050565b60006020820190508181036000830152611a7681611a3a565b9050919050565b6000611a88826114fa565b9150611a93836114fa565b9250817fffffffffffffffffffffffffffffffffffffffffffffffffffffffffffffffff0483118215151615611acc57611acb6118b4565b5b828202905092915050565b6000611ae2826114fa565b91507fffffffffffffffffffffffffffffffffffffffffffffffffffffffffffffffff8203611b1457611b136118b4565b5b600182019050919050565b7f45524332303a2064656372656173656420616c6c6f77616e63652062656c6f7760008201527f207a65726f000000000000000000000000000000000000000000000000000000602082015250565b6000611b7b602583611539565b9150611b8682611b1f565b604082019050919050565b60006020820190508181036000830152611baa81611b6e565b9050919050565b7f45524332303a20617070726f76652066726f6d20746865207a65726f2061646460008201527f7265737300000000000000000000000000000000000000000000000000000000602082015250565b6000611c0d602483611539565b9150611c1882611bb1565b604082019050919050565b60006020820190508181036000830152611c3c81611c00565b9050919050565b7f45524332303a20617070726f766520746f20746865207a65726f20616464726560008201527f7373000000000000000000000000000000000000000000000000000000000000602082015250565b6000611c9f602283611539565b9150611caa82611c43565b604082019050919050565b60006020820190508181036000830152611cce81611c92565b9050919050565b7f4e487b7100000000000000000000000000000000000000000000000000000000600052601260045260246000fd5b6000611d0f826114fa565b9150611d1a836114fa565b925082611d2a57611d29611cd5565b5b828204905092915050565b7f45524332303a206d696e7420746f20746865207a65726f206164647265737300600082015250565b6000611d6b601f83611539565b9150611d7682611d35565b602082019050919050565b60006020820190508181036000830152611d9a81611d5e565b9050919050565b7f45524332303a20696e73756666696369656e7420616c6c6f77616e6365000000600082015250565b6000611dd7601d83611539565b9150611de282611da1565b602082019050919050565b60006020820190508181036000830152611e0681611dca565b9050919050565b7f45524332303a207472616e736665722066726f6d20746865207a65726f20616460008201527f6472657373000000000000000000000000000000000000000000000000000000602082015250565b6000611e69602583611539565b9150611e7482611e0d565b604082019050919050565b60006020820190508181036000830152611e9881611e5c565b9050919050565b7f45524332303a207472616e7366657220746f20746865207a65726f206164647260008201527f6573730000000000000000000000000000000000000000000000000000000000602082015250565b6000611efb602383611539565b9150611f0682611e9f565b604082019050919050565b60006020820190508181036000830152611f2a81611eee565b9050919050565b7f45524332303a207472616e7366657220616d6f756e742065786365656473206260008201527f616c616e63650000000000000000000000000000000000000000000000000000602082015250565b6000611f8d602683611539565b9150611f9882611f31565b604082019050919050565b60006020820190508181036000830152611fbc81611f80565b9050919050565b7f4e487b7100000000000000000000000000000000000000000000000000000000600052603260045260246000fdfea2646970667358221220331cd2655691b86529d42318ccfa6f1891199e5b787bc662304224d966516d7e64736f6c634300080d0033",
  "immutableReferences": {},
  "source": "// SPDX-License-Identifier: MIT\r\npragma solidity 0.8.13;\r\n\r\nimport \"@openzeppelin/contracts/token/ERC20/ERC20.sol\";\r\nimport \"@openzeppelin/contracts/utils/structs/EnumerableSet.sol\";\r\n\r\ncontract CustomToken is ERC20 {\r\n    using EnumerableSet for EnumerableSet.AddressSet;\r\n    EnumerableSet.AddressSet private mintingAdmins;\r\n\r\n    uint256 private _maxSupply;\r\n    uint256 public TMAX;\r\n    uint256 private lastResetTimestamp;\r\n    mapping(address => uint256) public dailyMintedAmounts; // Track daily mints per admin\r\n\r\n    mapping(uint256 => mapping(address => bool)) public tmaxVotes;\r\n\r\n    constructor(\r\n        uint256 maxSupply_,\r\n        address[] memory mintingAdmins_,\r\n        uint256 tmax_ // Add the TMAX parameter\r\n    ) ERC20(\"CustomToken\", \"CTK\") {\r\n        _maxSupply = maxSupply_;\r\n        TMAX = tmax_;\r\n        for (uint256 i = 0; i < mintingAdmins_.length; i++) {\r\n            mintingAdmins.add(mintingAdmins_[i]);\r\n        }\r\n    }\r\n\r\n    modifier validRecipient(address _recipient) {\r\n        require(\r\n            _recipient != address(0),\r\n            \"Cannot transfer to the zero address\"\r\n        );\r\n        _;\r\n    }\r\n\r\n    modifier validSupply(uint256 _amount) {\r\n        require(\r\n            totalSupply() + _amount <= maxSupply(),\r\n            \"Cannot mint more than max supply\"\r\n        );\r\n        _;\r\n    }\r\n\r\n    modifier onlyMinter() {\r\n        require(mintingAdmins.contains(msg.sender), \"Caller is not a minter\");\r\n        _;\r\n    }\r\n\r\n    function maxSupply() public view virtual returns (uint256) {\r\n        return _maxSupply;\r\n    }\r\n\r\n    function mint(\r\n        address to,\r\n        uint256 amount\r\n    ) public validSupply(amount) onlyMinter {\r\n        resetDailyMintedAmounts();\r\n        require(\r\n            dailyMintedAmounts[msg.sender] + amount <= TMAX,\r\n            \"Individual daily limit exceeded\"\r\n        );\r\n        dailyMintedAmounts[msg.sender] += amount;\r\n        _mint(to, amount);\r\n    }\r\n\r\n    function resetDailyMintedAmounts() internal {\r\n        uint256 currentDay = block.timestamp / (24 * 60 * 60); // Approx. day based on timestamp\r\n        if (currentDay > lastResetTimestamp) {\r\n            lastResetTimestamp = currentDay;\r\n            for (uint256 i = 0; i < mintingAdmins.length(); i++) {\r\n                address adminAddress = mintingAdmins.at(i);\r\n                dailyMintedAmounts[adminAddress] = 0;\r\n            }\r\n        }\r\n    }\r\n\r\n    function proposeTMAX(uint256 _tmax) public onlyMinter {\r\n        tmaxVotes[_tmax][msg.sender] = true;\r\n        uint256 votes = getVoteCount(tmaxVotes[_tmax]);\r\n        if (votes * 2 > mintingAdmins.length()) {\r\n            TMAX = _tmax;\r\n            for (uint256 i = 0; i < mintingAdmins.length(); i++) {\r\n                address adminAddress = mintingAdmins.at(i);\r\n                delete tmaxVotes[_tmax][adminAddress];\r\n            }\r\n        }\r\n    }\r\n\r\n    function getVoteCount(\r\n        mapping(address => bool) storage votes\r\n    ) internal view returns (uint256) {\r\n        uint256 count = 0;\r\n        for (uint256 i = 0; i < EnumerableSet.length(mintingAdmins); i++) {\r\n            if (votes[EnumerableSet.at(mintingAdmins, i)]) {\r\n                count++;\r\n            }\r\n        }\r\n        return count;\r\n    }\r\n\r\n    function transfer(\r\n        address recipient,\r\n        uint256 amount\r\n    ) public override validRecipient(recipient) returns (bool) {\r\n        return super.transfer(recipient, amount);\r\n    }\r\n\r\n    function transferFrom(\r\n        address sender,\r\n        address recipient,\r\n        uint256 amount\r\n    ) public override validRecipient(recipient) returns (bool) {\r\n        return super.transferFrom(sender, recipient, amount);\r\n    }\r\n}\r\n",
  "sourcePath": "C:\\Users\\jiriv\\Documents\\kola\\multisig-wallet-2024\\contracts\\ModifiedERC20.sol",
  "compiler": {
    "name": "solc",
    "version": "0.8.13+commit.abaa5c0e.Emscripten.clang"
  },
  "schemaVersion": "3.4.16",
  "updatedAt": "2024-04-11T10:23:01.915Z",
  "devdoc": {
    "kind": "dev",
    "methods": {
      "allowance(address,address)": {
        "details": "See {IERC20-allowance}."
      },
      "approve(address,uint256)": {
        "details": "See {IERC20-approve}. NOTE: If `amount` is the maximum `uint256`, the allowance is not updated on `transferFrom`. This is semantically equivalent to an infinite approval. Requirements: - `spender` cannot be the zero address."
      },
      "balanceOf(address)": {
        "details": "See {IERC20-balanceOf}."
      },
      "decimals()": {
        "details": "Returns the number of decimals used to get its user representation. For example, if `decimals` equals `2`, a balance of `505` tokens should be displayed to a user as `5.05` (`505 / 10 ** 2`). Tokens usually opt for a value of 18, imitating the relationship between Ether and Wei. This is the default value returned by this function, unless it's overridden. NOTE: This information is only used for _display_ purposes: it in no way affects any of the arithmetic of the contract, including {IERC20-balanceOf} and {IERC20-transfer}."
      },
      "decreaseAllowance(address,uint256)": {
        "details": "Atomically decreases the allowance granted to `spender` by the caller. This is an alternative to {approve} that can be used as a mitigation for problems described in {IERC20-approve}. Emits an {Approval} event indicating the updated allowance. Requirements: - `spender` cannot be the zero address. - `spender` must have allowance for the caller of at least `subtractedValue`."
      },
      "increaseAllowance(address,uint256)": {
        "details": "Atomically increases the allowance granted to `spender` by the caller. This is an alternative to {approve} that can be used as a mitigation for problems described in {IERC20-approve}. Emits an {Approval} event indicating the updated allowance. Requirements: - `spender` cannot be the zero address."
      },
      "name()": {
        "details": "Returns the name of the token."
      },
      "symbol()": {
        "details": "Returns the symbol of the token, usually a shorter version of the name."
      },
      "totalSupply()": {
        "details": "See {IERC20-totalSupply}."
      }
    },
    "version": 1
  },
  "userdoc": {
    "kind": "user",
    "methods": {},
    "version": 1
  }
}