{
  "contractName": "CustomToken",
  "abi": [
    {
      "inputs": [
        {
          "internalType": "uint256",
          "name": "maxSupply_",
          "type": "uint256"
        },
        {
          "internalType": "address[]",
          "name": "mintingAdmins_",
          "type": "address[]"
        },
        {
          "internalType": "uint256",
          "name": "tmax_",
          "type": "uint256"
        }
      ],
      "stateMutability": "nonpayable",
      "type": "constructor"
    },
    {
      "anonymous": false,
      "inputs": [
        {
          "indexed": true,
          "internalType": "address",
          "name": "owner",
          "type": "address"
        },
        {
          "indexed": true,
          "internalType": "address",
          "name": "spender",
          "type": "address"
        },
        {
          "indexed": false,
          "internalType": "uint256",
          "name": "value",
          "type": "uint256"
        }
      ],
      "name": "Approval",
      "type": "event"
    },
    {
      "anonymous": false,
      "inputs": [
        {
          "indexed": true,
          "internalType": "address",
          "name": "from",
          "type": "address"
        },
        {
          "indexed": true,
          "internalType": "address",
          "name": "to",
          "type": "address"
        },
        {
          "indexed": false,
          "internalType": "uint256",
          "name": "value",
          "type": "uint256"
        }
      ],
      "name": "Transfer",
      "type": "event"
    },
    {
      "inputs": [],
      "name": "TMAX",
      "outputs": [
        {
          "internalType": "uint256",
          "name": "",
          "type": "uint256"
        }
      ],
      "stateMutability": "view",
      "type": "function"
    },
    {
      "inputs": [
        {
          "internalType": "address",
          "name": "owner",
          "type": "address"
        },
        {
          "internalType": "address",
          "name": "spender",
          "type": "address"
        }
      ],
      "name": "allowance",
      "outputs": [
        {
          "internalType": "uint256",
          "name": "",
          "type": "uint256"
        }
      ],
      "stateMutability": "view",
      "type": "function"
    },
    {
      "inputs": [
        {
          "internalType": "address",
          "name": "spender",
          "type": "address"
        },
        {
          "internalType": "uint256",
          "name": "amount",
          "type": "uint256"
        }
      ],
      "name": "approve",
      "outputs": [
        {
          "internalType": "bool",
          "name": "",
          "type": "bool"
        }
      ],
      "stateMutability": "nonpayable",
      "type": "function"
    },
    {
      "inputs": [
        {
          "internalType": "address",
          "name": "account",
          "type": "address"
        }
      ],
      "name": "balanceOf",
      "outputs": [
        {
          "internalType": "uint256",
          "name": "",
          "type": "uint256"
        }
      ],
      "stateMutability": "view",
      "type": "function"
    },
    {
      "inputs": [
        {
          "internalType": "address",
          "name": "",
          "type": "address"
        }
      ],
      "name": "dailyMintedAmounts",
      "outputs": [
        {
          "internalType": "uint256",
          "name": "",
          "type": "uint256"
        }
      ],
      "stateMutability": "view",
      "type": "function"
    },
    {
      "inputs": [],
      "name": "decimals",
      "outputs": [
        {
          "internalType": "uint8",
          "name": "",
          "type": "uint8"
        }
      ],
      "stateMutability": "view",
      "type": "function"
    },
    {
      "inputs": [
        {
          "internalType": "address",
          "name": "spender",
          "type": "address"
        },
        {
          "internalType": "uint256",
          "name": "subtractedValue",
          "type": "uint256"
        }
      ],
      "name": "decreaseAllowance",
      "outputs": [
        {
          "internalType": "bool",
          "name": "",
          "type": "bool"
        }
      ],
      "stateMutability": "nonpayable",
      "type": "function"
    },
    {
      "inputs": [
        {
          "internalType": "address",
          "name": "spender",
          "type": "address"
        },
        {
          "internalType": "uint256",
          "name": "addedValue",
          "type": "uint256"
        }
      ],
      "name": "increaseAllowance",
      "outputs": [
        {
          "internalType": "bool",
          "name": "",
          "type": "bool"
        }
      ],
      "stateMutability": "nonpayable",
      "type": "function"
    },
    {
      "inputs": [],
      "name": "name",
      "outputs": [
        {
          "internalType": "string",
          "name": "",
          "type": "string"
        }
      ],
      "stateMutability": "view",
      "type": "function"
    },
    {
      "inputs": [],
      "name": "symbol",
      "outputs": [
        {
          "internalType": "string",
          "name": "",
          "type": "string"
        }
      ],
      "stateMutability": "view",
      "type": "function"
    },
    {
      "inputs": [
        {
          "internalType": "uint256",
          "name": "",
          "type": "uint256"
        },
        {
          "internalType": "address",
          "name": "",
          "type": "address"
        }
      ],
      "name": "tmaxVotes",
      "outputs": [
        {
          "internalType": "bool",
          "name": "",
          "type": "bool"
        }
      ],
      "stateMutability": "view",
      "type": "function"
    },
    {
      "inputs": [],
      "name": "totalSupply",
      "outputs": [
        {
          "internalType": "uint256",
          "name": "",
          "type": "uint256"
        }
      ],
      "stateMutability": "view",
      "type": "function"
    },
    {
      "inputs": [],
      "name": "maxSupply",
      "outputs": [
        {
          "internalType": "uint256",
          "name": "",
          "type": "uint256"
        }
      ],
      "stateMutability": "view",
      "type": "function"
    },
    {
      "inputs": [
        {
          "internalType": "address",
          "name": "to",
          "type": "address"
        },
        {
          "internalType": "uint256",
          "name": "amount",
          "type": "uint256"
        }
      ],
      "name": "mint",
      "outputs": [],
      "stateMutability": "nonpayable",
      "type": "function"
    },
    {
      "inputs": [
        {
          "internalType": "address[]",
          "name": "recipients",
          "type": "address[]"
        },
        {
          "internalType": "uint256[]",
          "name": "amounts",
          "type": "uint256[]"
        }
      ],
      "name": "mintBatch",
      "outputs": [],
      "stateMutability": "nonpayable",
      "type": "function"
    },
    {
      "inputs": [
        {
          "internalType": "uint256",
          "name": "_tmax",
          "type": "uint256"
        }
      ],
      "name": "proposeTMAX",
      "outputs": [],
      "stateMutability": "nonpayable",
      "type": "function"
    },
    {
      "inputs": [
        {
          "internalType": "address",
          "name": "recipient",
          "type": "address"
        },
        {
          "internalType": "uint256",
          "name": "amount",
          "type": "uint256"
        }
      ],
      "name": "transfer",
      "outputs": [
        {
          "internalType": "bool",
          "name": "",
          "type": "bool"
        }
      ],
      "stateMutability": "nonpayable",
      "type": "function"
    },
    {
      "inputs": [
        {
          "internalType": "address",
          "name": "sender",
          "type": "address"
        },
        {
          "internalType": "address",
          "name": "recipient",
          "type": "address"
        },
        {
          "internalType": "uint256",
          "name": "amount",
          "type": "uint256"
        }
      ],
      "name": "transferFrom",
      "outputs": [
        {
          "internalType": "bool",
          "name": "",
          "type": "bool"
        }
      ],
      "stateMutability": "nonpayable",
      "type": "function"
    }
  ],
  "bytecode": "0x60806040523480156200001157600080fd5b5060405162002aff38038062002aff8339818101604052810190620000379190620004f9565b6040518060400160405280600b81526020017f437573746f6d546f6b656e0000000000000000000000000000000000000000008152506040518060400160405280600381526020017f43544b00000000000000000000000000000000000000000000000000000000008152508160039080519060200190620000bb92919062000220565b508060049080519060200190620000d492919062000220565b505050826007819055508060088190555060005b825181101562000141576200012a8382815181106200010c576200010b62000574565b5b602002602001015160056200014b60201b62000c571790919060201c565b5080806200013890620005d2565b915050620000e8565b5050505062000683565b60006200017b836000018373ffffffffffffffffffffffffffffffffffffffff1660001b6200018360201b60201c565b905092915050565b6000620001978383620001fd60201b60201c565b620001f2578260000182908060018154018082558091505060019003906000526020600020016000909190919091505582600001805490508360010160008481526020019081526020016000208190555060019050620001f7565b600090505b92915050565b600080836001016000848152602001908152602001600020541415905092915050565b8280546200022e906200064e565b90600052602060002090601f0160209004810192826200025257600085556200029e565b82601f106200026d57805160ff19168380011785556200029e565b828001600101855582156200029e579182015b828111156200029d57825182559160200191906001019062000280565b5b509050620002ad9190620002b1565b5090565b5b80821115620002cc576000816000905550600101620002b2565b5090565b6000604051905090565b600080fd5b600080fd5b6000819050919050565b620002f981620002e4565b81146200030557600080fd5b50565b6000815190506200031981620002ee565b92915050565b600080fd5b6000601f19601f8301169050919050565b7f4e487b7100000000000000000000000000000000000000000000000000000000600052604160045260246000fd5b6200036f8262000324565b810181811067ffffffffffffffff8211171562000391576200039062000335565b5b80604052505050565b6000620003a6620002d0565b9050620003b4828262000364565b919050565b600067ffffffffffffffff821115620003d757620003d662000335565b5b602082029050602081019050919050565b600080fd5b600073ffffffffffffffffffffffffffffffffffffffff82169050919050565b60006200041a82620003ed565b9050919050565b6200042c816200040d565b81146200043857600080fd5b50565b6000815190506200044c8162000421565b92915050565b6000620004696200046384620003b9565b6200039a565b905080838252602082019050602084028301858111156200048f576200048e620003e8565b5b835b81811015620004bc5780620004a788826200043b565b84526020840193505060208101905062000491565b5050509392505050565b600082601f830112620004de57620004dd6200031f565b5b8151620004f084826020860162000452565b91505092915050565b600080600060608486031215620005155762000514620002da565b5b6000620005258682870162000308565b935050602084015167ffffffffffffffff811115620005495762000548620002df565b5b6200055786828701620004c6565b92505060406200056a8682870162000308565b9150509250925092565b7f4e487b7100000000000000000000000000000000000000000000000000000000600052603260045260246000fd5b7f4e487b7100000000000000000000000000000000000000000000000000000000600052601160045260246000fd5b6000620005df82620002e4565b91507fffffffffffffffffffffffffffffffffffffffffffffffffffffffffffffffff8203620006145762000613620005a3565b5b600182019050919050565b7f4e487b7100000000000000000000000000000000000000000000000000000000600052602260045260246000fd5b600060028204905060018216806200066757607f821691505b6020821081036200067d576200067c6200061f565b5b50919050565b61246c80620006936000396000f3fe608060405234801561001057600080fd5b50600436106101165760003560e01c8063545dcac3116100a257806395d89b411161007157806395d89b4114610307578063a457c2d714610325578063a9059cbb14610355578063d5abeb0114610385578063dd62ed3e146103a357610116565b8063545dcac31461026d57806370a082311461028b5780637c88e3d9146102bb5780638461eef8146102d757610116565b806323b872dd116100e957806323b872dd146101b7578063313ce567146101e7578063395093511461020557806340c10f19146102355780634ff6c1331461025157610116565b8063020edad61461011b57806306fdde031461014b578063095ea7b31461016957806318160ddd14610199575b600080fd5b610135600480360381019061013091906115fc565b6103d3565b6040516101429190611642565b60405180910390f35b6101536103eb565b60405161016091906116f6565b60405180910390f35b610183600480360381019061017e9190611744565b61047d565b604051610190919061179f565b60405180910390f35b6101a16104a0565b6040516101ae9190611642565b60405180910390f35b6101d160048036038101906101cc91906117ba565b6104aa565b6040516101de919061179f565b60405180910390f35b6101ef610531565b6040516101fc9190611829565b60405180910390f35b61021f600480360381019061021a9190611744565b61053a565b60405161022c919061179f565b60405180910390f35b61024f600480360381019061024a9190611744565b610571565b005b61026b60048036038101906102669190611844565b61071d565b005b6102756108c2565b6040516102829190611642565b60405180910390f35b6102a560048036038101906102a091906115fc565b6108c8565b6040516102b29190611642565b60405180910390f35b6102d560048036038101906102d09190611a7c565b610910565b005b6102f160048036038101906102ec9190611af4565b610a09565b6040516102fe919061179f565b60405180910390f35b61030f610a38565b60405161031c91906116f6565b60405180910390f35b61033f600480360381019061033a9190611744565b610aca565b60405161034c919061179f565b60405180910390f35b61036f600480360381019061036a9190611744565b610b41565b60405161037c919061179f565b60405180910390f35b61038d610bc6565b60405161039a9190611642565b60405180910390f35b6103bd60048036038101906103b89190611b34565b610bd0565b6040516103ca9190611642565b60405180910390f35b600a6020528060005260406000206000915090505481565b6060600380546103fa90611ba3565b80601f016020809104026020016040519081016040528092919081815260200182805461042690611ba3565b80156104735780601f1061044857610100808354040283529160200191610473565b820191906000526020600020905b81548152906001019060200180831161045657829003601f168201915b5050505050905090565b600080610488610c87565b9050610495818585610c8f565b600191505092915050565b6000600254905090565b600082600073ffffffffffffffffffffffffffffffffffffffff168173ffffffffffffffffffffffffffffffffffffffff160361051c576040517f08c379a000000000000000000000000000000000000000000000000000000000815260040161051390611c46565b60405180910390fd5b610527858585610e58565b9150509392505050565b60006012905090565b600080610545610c87565b90506105668185856105578589610bd0565b6105619190611c95565b610c8f565b600191505092915050565b8061057a610bc6565b816105836104a0565b61058d9190611c95565b11156105ce576040517f08c379a00000000000000000000000000000000000000000000000000000000081526004016105c590611d37565b60405180910390fd5b6105e2336005610e8790919063ffffffff16565b610621576040517f08c379a000000000000000000000000000000000000000000000000000000000815260040161061890611da3565b60405180910390fd5b610629610eb7565b60085482600a60003373ffffffffffffffffffffffffffffffffffffffff1673ffffffffffffffffffffffffffffffffffffffff168152602001908152602001600020546106779190611c95565b11156106b8576040517f08c379a00000000000000000000000000000000000000000000000000000000081526004016106af90611e0f565b60405180910390fd5b81600a60003373ffffffffffffffffffffffffffffffffffffffff1673ffffffffffffffffffffffffffffffffffffffff16815260200190815260200160002060008282546107079190611c95565b925050819055506107188383610f65565b505050565b610731336005610e8790919063ffffffff16565b610770576040517f08c379a000000000000000000000000000000000000000000000000000000000815260040161076790611da3565b60405180910390fd5b6001600b600083815260200190815260200160002060003373ffffffffffffffffffffffffffffffffffffffff1673ffffffffffffffffffffffffffffffffffffffff16815260200190815260200160002060006101000a81548160ff02191690831515021790555060006107f6600b60008481526020019081526020016000206110bb565b9050610802600561115d565b60028261080f9190611e2f565b11156108be578160088190555060005b610829600561115d565b8110156108bc57600061084682600561117290919063ffffffff16565b9050600b600085815260200190815260200160002060008273ffffffffffffffffffffffffffffffffffffffff1673ffffffffffffffffffffffffffffffffffffffff16815260200190815260200160002060006101000a81549060ff02191690555080806108b490611e89565b91505061081f565b505b5050565b60085481565b60008060008373ffffffffffffffffffffffffffffffffffffffff1673ffffffffffffffffffffffffffffffffffffffff168152602001908152602001600020549050919050565b610924336005610e8790919063ffffffff16565b610963576040517f08c379a000000000000000000000000000000000000000000000000000000000815260040161095a90611da3565b60405180910390fd5b80518251146109a7576040517f08c379a000000000000000000000000000000000000000000000000000000000815260040161099e90611f43565b60405180910390fd5b60005b8251811015610a04576109f18382815181106109c9576109c8611f63565b5b60200260200101518383815181106109e4576109e3611f63565b5b6020026020010151610571565b80806109fc90611e89565b9150506109aa565b505050565b600b6020528160005260406000206020528060005260406000206000915091509054906101000a900460ff1681565b606060048054610a4790611ba3565b80601f0160208091040260200160405190810160405280929190818152602001828054610a7390611ba3565b8015610ac05780601f10610a9557610100808354040283529160200191610ac0565b820191906000526020600020905b815481529060010190602001808311610aa357829003601f168201915b5050505050905090565b600080610ad5610c87565b90506000610ae38286610bd0565b905083811015610b28576040517f08c379a0000000000000000000000000000000000000000000000000000000008152600401610b1f90612004565b60405180910390fd5b610b358286868403610c8f565b60019250505092915050565b600082600073ffffffffffffffffffffffffffffffffffffffff168173ffffffffffffffffffffffffffffffffffffffff1603610bb3576040517f08c379a0000000000000000000000000000000000000000000000000000000008152600401610baa90611c46565b60405180910390fd5b610bbd848461118c565b91505092915050565b6000600754905090565b6000600160008473ffffffffffffffffffffffffffffffffffffffff1673ffffffffffffffffffffffffffffffffffffffff16815260200190815260200160002060008373ffffffffffffffffffffffffffffffffffffffff1673ffffffffffffffffffffffffffffffffffffffff16815260200190815260200160002054905092915050565b6000610c7f836000018373ffffffffffffffffffffffffffffffffffffffff1660001b6111af565b905092915050565b600033905090565b600073ffffffffffffffffffffffffffffffffffffffff168373ffffffffffffffffffffffffffffffffffffffff1603610cfe576040517f08c379a0000000000000000000000000000000000000000000000000000000008152600401610cf590612096565b60405180910390fd5b600073ffffffffffffffffffffffffffffffffffffffff168273ffffffffffffffffffffffffffffffffffffffff1603610d6d576040517f08c379a0000000000000000000000000000000000000000000000000000000008152600401610d6490612128565b60405180910390fd5b80600160008573ffffffffffffffffffffffffffffffffffffffff1673ffffffffffffffffffffffffffffffffffffffff16815260200190815260200160002060008473ffffffffffffffffffffffffffffffffffffffff1673ffffffffffffffffffffffffffffffffffffffff168152602001908152602001600020819055508173ffffffffffffffffffffffffffffffffffffffff168373ffffffffffffffffffffffffffffffffffffffff167f8c5be1e5ebec7d5bd14f71427d1e84f3dd0314c0f7b2291e5b200ac8c7c3b92583604051610e4b9190611642565b60405180910390a3505050565b600080610e63610c87565b9050610e7085828561121f565b610e7b8585856112ab565b60019150509392505050565b6000610eaf836000018373ffffffffffffffffffffffffffffffffffffffff1660001b611521565b905092915050565b60006201518042610ec89190612177565b9050600954811115610f62578060098190555060005b610ee8600561115d565b811015610f60576000610f0582600561117290919063ffffffff16565b90506000600a60008373ffffffffffffffffffffffffffffffffffffffff1673ffffffffffffffffffffffffffffffffffffffff16815260200190815260200160002081905550508080610f5890611e89565b915050610ede565b505b50565b600073ffffffffffffffffffffffffffffffffffffffff168273ffffffffffffffffffffffffffffffffffffffff1603610fd4576040517f08c379a0000000000000000000000000000000000000000000000000000000008152600401610fcb906121f4565b60405180910390fd5b610fe060008383611544565b8060026000828254610ff29190611c95565b92505081905550806000808473ffffffffffffffffffffffffffffffffffffffff1673ffffffffffffffffffffffffffffffffffffffff168152602001908152602001600020600082825401925050819055508173ffffffffffffffffffffffffffffffffffffffff16600073ffffffffffffffffffffffffffffffffffffffff167fddf252ad1be2c89b69c2b068fc378daa952ba7f163c4a11628f55a4df523b3ef836040516110a39190611642565b60405180910390a36110b760008383611549565b5050565b6000806000905060005b6110cf600561115d565b811015611153578360006110e4600584611172565b73ffffffffffffffffffffffffffffffffffffffff1673ffffffffffffffffffffffffffffffffffffffff16815260200190815260200160002060009054906101000a900460ff161561114057818061113c90611e89565b9250505b808061114b90611e89565b9150506110c5565b5080915050919050565b600061116b8260000161154e565b9050919050565b6000611181836000018361155f565b60001c905092915050565b600080611197610c87565b90506111a48185856112ab565b600191505092915050565b60006111bb8383611521565b611214578260000182908060018154018082558091505060019003906000526020600020016000909190919091505582600001805490508360010160008481526020019081526020016000208190555060019050611219565b600090505b92915050565b600061122b8484610bd0565b90507fffffffffffffffffffffffffffffffffffffffffffffffffffffffffffffffff81146112a55781811015611297576040517f08c379a000000000000000000000000000000000000000000000000000000000815260040161128e90612260565b60405180910390fd5b6112a48484848403610c8f565b5b50505050565b600073ffffffffffffffffffffffffffffffffffffffff168373ffffffffffffffffffffffffffffffffffffffff160361131a576040517f08c379a0000000000000000000000000000000000000000000000000000000008152600401611311906122f2565b60405180910390fd5b600073ffffffffffffffffffffffffffffffffffffffff168273ffffffffffffffffffffffffffffffffffffffff1603611389576040517f08c379a000000000000000000000000000000000000000000000000000000000815260040161138090612384565b60405180910390fd5b611394838383611544565b60008060008573ffffffffffffffffffffffffffffffffffffffff1673ffffffffffffffffffffffffffffffffffffffff1681526020019081526020016000205490508181101561141a576040517f08c379a000000000000000000000000000000000000000000000000000000000815260040161141190612416565b60405180910390fd5b8181036000808673ffffffffffffffffffffffffffffffffffffffff1673ffffffffffffffffffffffffffffffffffffffff16815260200190815260200160002081905550816000808573ffffffffffffffffffffffffffffffffffffffff1673ffffffffffffffffffffffffffffffffffffffff168152602001908152602001600020600082825401925050819055508273ffffffffffffffffffffffffffffffffffffffff168473ffffffffffffffffffffffffffffffffffffffff167fddf252ad1be2c89b69c2b068fc378daa952ba7f163c4a11628f55a4df523b3ef846040516115089190611642565b60405180910390a361151b848484611549565b50505050565b600080836001016000848152602001908152602001600020541415905092915050565b505050565b505050565b600081600001805490509050919050565b600082600001828154811061157757611576611f63565b5b9060005260206000200154905092915050565b6000604051905090565b600080fd5b600080fd5b600073ffffffffffffffffffffffffffffffffffffffff82169050919050565b60006115c98261159e565b9050919050565b6115d9816115be565b81146115e457600080fd5b50565b6000813590506115f6816115d0565b92915050565b60006020828403121561161257611611611594565b5b6000611620848285016115e7565b91505092915050565b6000819050919050565b61163c81611629565b82525050565b60006020820190506116576000830184611633565b92915050565b600081519050919050565b600082825260208201905092915050565b60005b8381101561169757808201518184015260208101905061167c565b838111156116a6576000848401525b50505050565b6000601f19601f8301169050919050565b60006116c88261165d565b6116d28185611668565b93506116e2818560208601611679565b6116eb816116ac565b840191505092915050565b6000602082019050818103600083015261171081846116bd565b905092915050565b61172181611629565b811461172c57600080fd5b50565b60008135905061173e81611718565b92915050565b6000806040838503121561175b5761175a611594565b5b6000611769858286016115e7565b925050602061177a8582860161172f565b9150509250929050565b60008115159050919050565b61179981611784565b82525050565b60006020820190506117b46000830184611790565b92915050565b6000806000606084860312156117d3576117d2611594565b5b60006117e1868287016115e7565b93505060206117f2868287016115e7565b92505060406118038682870161172f565b9150509250925092565b600060ff82169050919050565b6118238161180d565b82525050565b600060208201905061183e600083018461181a565b92915050565b60006020828403121561185a57611859611594565b5b60006118688482850161172f565b91505092915050565b600080fd5b7f4e487b7100000000000000000000000000000000000000000000000000000000600052604160045260246000fd5b6118ae826116ac565b810181811067ffffffffffffffff821117156118cd576118cc611876565b5b80604052505050565b60006118e061158a565b90506118ec82826118a5565b919050565b600067ffffffffffffffff82111561190c5761190b611876565b5b602082029050602081019050919050565b600080fd5b6000611935611930846118f1565b6118d6565b905080838252602082019050602084028301858111156119585761195761191d565b5b835b81811015611981578061196d88826115e7565b84526020840193505060208101905061195a565b5050509392505050565b600082601f8301126119a05761199f611871565b5b81356119b0848260208601611922565b91505092915050565b600067ffffffffffffffff8211156119d4576119d3611876565b5b602082029050602081019050919050565b60006119f86119f3846119b9565b6118d6565b90508083825260208201905060208402830185811115611a1b57611a1a61191d565b5b835b81811015611a445780611a30888261172f565b845260208401935050602081019050611a1d565b5050509392505050565b600082601f830112611a6357611a62611871565b5b8135611a738482602086016119e5565b91505092915050565b60008060408385031215611a9357611a92611594565b5b600083013567ffffffffffffffff811115611ab157611ab0611599565b5b611abd8582860161198b565b925050602083013567ffffffffffffffff811115611ade57611add611599565b5b611aea85828601611a4e565b9150509250929050565b60008060408385031215611b0b57611b0a611594565b5b6000611b198582860161172f565b9250506020611b2a858286016115e7565b9150509250929050565b60008060408385031215611b4b57611b4a611594565b5b6000611b59858286016115e7565b9250506020611b6a858286016115e7565b9150509250929050565b7f4e487b7100000000000000000000000000000000000000000000000000000000600052602260045260246000fd5b60006002820490506001821680611bbb57607f821691505b602082108103611bce57611bcd611b74565b5b50919050565b7f43616e6e6f74207472616e7366657220746f20746865207a65726f206164647260008201527f6573730000000000000000000000000000000000000000000000000000000000602082015250565b6000611c30602383611668565b9150611c3b82611bd4565b604082019050919050565b60006020820190508181036000830152611c5f81611c23565b9050919050565b7f4e487b7100000000000000000000000000000000000000000000000000000000600052601160045260246000fd5b6000611ca082611629565b9150611cab83611629565b9250827fffffffffffffffffffffffffffffffffffffffffffffffffffffffffffffffff03821115611ce057611cdf611c66565b5b828201905092915050565b7f43616e6e6f74206d696e74206d6f7265207468616e206d617820737570706c79600082015250565b6000611d21602083611668565b9150611d2c82611ceb565b602082019050919050565b60006020820190508181036000830152611d5081611d14565b9050919050565b7f43616c6c6572206973206e6f742061206d696e74657200000000000000000000600082015250565b6000611d8d601683611668565b9150611d9882611d57565b602082019050919050565b60006020820190508181036000830152611dbc81611d80565b9050919050565b7f496e646976696475616c206461696c79206c696d697420657863656564656400600082015250565b6000611df9601f83611668565b9150611e0482611dc3565b602082019050919050565b60006020820190508181036000830152611e2881611dec565b9050919050565b6000611e3a82611629565b9150611e4583611629565b9250817fffffffffffffffffffffffffffffffffffffffffffffffffffffffffffffffff0483118215151615611e7e57611e7d611c66565b5b828202905092915050565b6000611e9482611629565b91507fffffffffffffffffffffffffffffffffffffffffffffffffffffffffffffffff8203611ec657611ec5611c66565b5b600182019050919050565b7f526563697069656e747320616e6420616d6f756e747320617272617973206d7560008201527f73742068617665207468652073616d65206c656e677468000000000000000000602082015250565b6000611f2d603783611668565b9150611f3882611ed1565b604082019050919050565b60006020820190508181036000830152611f5c81611f20565b9050919050565b7f4e487b7100000000000000000000000000000000000000000000000000000000600052603260045260246000fd5b7f45524332303a2064656372656173656420616c6c6f77616e63652062656c6f7760008201527f207a65726f000000000000000000000000000000000000000000000000000000602082015250565b6000611fee602583611668565b9150611ff982611f92565b604082019050919050565b6000602082019050818103600083015261201d81611fe1565b9050919050565b7f45524332303a20617070726f76652066726f6d20746865207a65726f2061646460008201527f7265737300000000000000000000000000000000000000000000000000000000602082015250565b6000612080602483611668565b915061208b82612024565b604082019050919050565b600060208201905081810360008301526120af81612073565b9050919050565b7f45524332303a20617070726f766520746f20746865207a65726f20616464726560008201527f7373000000000000000000000000000000000000000000000000000000000000602082015250565b6000612112602283611668565b915061211d826120b6565b604082019050919050565b6000602082019050818103600083015261214181612105565b9050919050565b7f4e487b7100000000000000000000000000000000000000000000000000000000600052601260045260246000fd5b600061218282611629565b915061218d83611629565b92508261219d5761219c612148565b5b828204905092915050565b7f45524332303a206d696e7420746f20746865207a65726f206164647265737300600082015250565b60006121de601f83611668565b91506121e9826121a8565b602082019050919050565b6000602082019050818103600083015261220d816121d1565b9050919050565b7f45524332303a20696e73756666696369656e7420616c6c6f77616e6365000000600082015250565b600061224a601d83611668565b915061225582612214565b602082019050919050565b600060208201905081810360008301526122798161223d565b9050919050565b7f45524332303a207472616e736665722066726f6d20746865207a65726f20616460008201527f6472657373000000000000000000000000000000000000000000000000000000602082015250565b60006122dc602583611668565b91506122e782612280565b604082019050919050565b6000602082019050818103600083015261230b816122cf565b9050919050565b7f45524332303a207472616e7366657220746f20746865207a65726f206164647260008201527f6573730000000000000000000000000000000000000000000000000000000000602082015250565b600061236e602383611668565b915061237982612312565b604082019050919050565b6000602082019050818103600083015261239d81612361565b9050919050565b7f45524332303a207472616e7366657220616d6f756e742065786365656473206260008201527f616c616e63650000000000000000000000000000000000000000000000000000602082015250565b6000612400602683611668565b915061240b826123a4565b604082019050919050565b6000602082019050818103600083015261242f816123f3565b905091905056fea2646970667358221220558bdd60285f186966b8fb8100c668711547f8ab2aec51ab167054b411018bee64736f6c634300080d0033",
  "immutableReferences": {},
  "source": "// SPDX-License-Identifier: MIT\r\npragma solidity 0.8.13;\r\n\r\nimport \"@openzeppelin/contracts/token/ERC20/ERC20.sol\";\r\nimport \"@openzeppelin/contracts/utils/structs/EnumerableSet.sol\";\r\n\r\ncontract CustomToken is ERC20 {\r\n    using EnumerableSet for EnumerableSet.AddressSet;\r\n    EnumerableSet.AddressSet private mintingAdmins;\r\n\r\n    uint256 private _maxSupply;\r\n    uint256 public TMAX;\r\n    uint256 private lastResetTimestamp;\r\n    mapping(address => uint256) public dailyMintedAmounts; // Track daily mints per admin\r\n\r\n    mapping(uint256 => mapping(address => bool)) public tmaxVotes;\r\n\r\n    constructor(\r\n        uint256 maxSupply_,\r\n        address[] memory mintingAdmins_,\r\n        uint256 tmax_ // Add the TMAX parameter\r\n    ) ERC20(\"CustomToken\", \"CTK\") {\r\n        _maxSupply = maxSupply_;\r\n        TMAX = tmax_;\r\n        for (uint256 i = 0; i < mintingAdmins_.length; i++) {\r\n            mintingAdmins.add(mintingAdmins_[i]);\r\n        }\r\n    }\r\n\r\n    modifier validRecipient(address _recipient) {\r\n        require(\r\n            _recipient != address(0),\r\n            \"Cannot transfer to the zero address\"\r\n        );\r\n        _;\r\n    }\r\n\r\n    modifier validSupply(uint256 _amount) {\r\n        require(\r\n            totalSupply() + _amount <= maxSupply(),\r\n            \"Cannot mint more than max supply\"\r\n        );\r\n        _;\r\n    }\r\n\r\n    modifier onlyMinter() {\r\n        require(mintingAdmins.contains(msg.sender), \"Caller is not a minter\");\r\n        _;\r\n    }\r\n\r\n    function maxSupply() public view virtual returns (uint256) {\r\n        return _maxSupply;\r\n    }\r\n\r\n    function mint(\r\n        address to,\r\n        uint256 amount\r\n    ) public validSupply(amount) onlyMinter {\r\n        resetDailyMintedAmounts();\r\n        require(\r\n            dailyMintedAmounts[msg.sender] + amount <= TMAX,\r\n            \"Individual daily limit exceeded\"\r\n        );\r\n        dailyMintedAmounts[msg.sender] += amount;\r\n        _mint(to, amount);\r\n    }\r\n\r\n    function mintBatch(\r\n        address[] memory recipients,\r\n        uint256[] memory amounts\r\n    ) public onlyMinter {\r\n        require(\r\n            recipients.length == amounts.length,\r\n            \"Recipients and amounts arrays must have the same length\"\r\n        );\r\n\r\n        for (uint i = 0; i < recipients.length; i++) {\r\n            mint(recipients[i], amounts[i]);\r\n        }\r\n    }\r\n\r\n    function proposeTMAX(uint256 _tmax) public onlyMinter {\r\n        tmaxVotes[_tmax][msg.sender] = true;\r\n        uint256 votes = getVoteCount(tmaxVotes[_tmax]);\r\n        if (votes * 2 > mintingAdmins.length()) {\r\n            TMAX = _tmax;\r\n            for (uint256 i = 0; i < mintingAdmins.length(); i++) {\r\n                address adminAddress = mintingAdmins.at(i);\r\n                delete tmaxVotes[_tmax][adminAddress];\r\n            }\r\n        }\r\n    }\r\n\r\n    function transfer(\r\n        address recipient,\r\n        uint256 amount\r\n    ) public override validRecipient(recipient) returns (bool) {\r\n        return super.transfer(recipient, amount);\r\n    }\r\n\r\n    function transferFrom(\r\n        address sender,\r\n        address recipient,\r\n        uint256 amount\r\n    ) public override validRecipient(recipient) returns (bool) {\r\n        return super.transferFrom(sender, recipient, amount);\r\n    }\r\n\r\n    function resetDailyMintedAmounts() internal {\r\n        uint256 currentDay = block.timestamp / (24 * 60 * 60); // Approx. day based on timestamp\r\n        if (currentDay > lastResetTimestamp) {\r\n            lastResetTimestamp = currentDay;\r\n            for (uint256 i = 0; i < mintingAdmins.length(); i++) {\r\n                address adminAddress = mintingAdmins.at(i);\r\n                dailyMintedAmounts[adminAddress] = 0;\r\n            }\r\n        }\r\n    }\r\n\r\n    function getVoteCount(\r\n        mapping(address => bool) storage votes\r\n    ) internal view returns (uint256) {\r\n        uint256 count = 0;\r\n        for (uint256 i = 0; i < EnumerableSet.length(mintingAdmins); i++) {\r\n            if (votes[EnumerableSet.at(mintingAdmins, i)]) {\r\n                count++;\r\n            }\r\n        }\r\n        return count;\r\n    }\r\n}\r\n",
  "sourcePath": "C:\\Users\\jiriv\\Documents\\kola\\multisig-wallet-2024\\contracts\\ModifiedERC20.sol",
  "compiler": {
    "name": "solc",
    "version": "0.8.13+commit.abaa5c0e.Emscripten.clang"
  },
  "schemaVersion": "3.4.16",
  "updatedAt": "2024-04-11T11:14:26.995Z",
  "devdoc": {
    "kind": "dev",
    "methods": {
      "allowance(address,address)": {
        "details": "See {IERC20-allowance}."
      },
      "approve(address,uint256)": {
        "details": "See {IERC20-approve}. NOTE: If `amount` is the maximum `uint256`, the allowance is not updated on `transferFrom`. This is semantically equivalent to an infinite approval. Requirements: - `spender` cannot be the zero address."
      },
      "balanceOf(address)": {
        "details": "See {IERC20-balanceOf}."
      },
      "decimals()": {
        "details": "Returns the number of decimals used to get its user representation. For example, if `decimals` equals `2`, a balance of `505` tokens should be displayed to a user as `5.05` (`505 / 10 ** 2`). Tokens usually opt for a value of 18, imitating the relationship between Ether and Wei. This is the default value returned by this function, unless it's overridden. NOTE: This information is only used for _display_ purposes: it in no way affects any of the arithmetic of the contract, including {IERC20-balanceOf} and {IERC20-transfer}."
      },
      "decreaseAllowance(address,uint256)": {
        "details": "Atomically decreases the allowance granted to `spender` by the caller. This is an alternative to {approve} that can be used as a mitigation for problems described in {IERC20-approve}. Emits an {Approval} event indicating the updated allowance. Requirements: - `spender` cannot be the zero address. - `spender` must have allowance for the caller of at least `subtractedValue`."
      },
      "increaseAllowance(address,uint256)": {
        "details": "Atomically increases the allowance granted to `spender` by the caller. This is an alternative to {approve} that can be used as a mitigation for problems described in {IERC20-approve}. Emits an {Approval} event indicating the updated allowance. Requirements: - `spender` cannot be the zero address."
      },
      "name()": {
        "details": "Returns the name of the token."
      },
      "symbol()": {
        "details": "Returns the symbol of the token, usually a shorter version of the name."
      },
      "totalSupply()": {
        "details": "See {IERC20-totalSupply}."
      }
    },
    "version": 1
  },
  "userdoc": {
    "kind": "user",
    "methods": {},
    "version": 1
  }
}