{
  "contractName": "CustomToken",
  "abi": [
    {
      "inputs": [
        {
          "internalType": "uint256",
          "name": "maxSupply_",
          "type": "uint256"
        }
      ],
      "stateMutability": "nonpayable",
      "type": "constructor"
    },
    {
      "anonymous": false,
      "inputs": [
        {
          "indexed": true,
          "internalType": "address",
          "name": "owner",
          "type": "address"
        },
        {
          "indexed": true,
          "internalType": "address",
          "name": "spender",
          "type": "address"
        },
        {
          "indexed": false,
          "internalType": "uint256",
          "name": "value",
          "type": "uint256"
        }
      ],
      "name": "Approval",
      "type": "event"
    },
    {
      "anonymous": false,
      "inputs": [
        {
          "indexed": true,
          "internalType": "address",
          "name": "from",
          "type": "address"
        },
        {
          "indexed": true,
          "internalType": "address",
          "name": "to",
          "type": "address"
        },
        {
          "indexed": false,
          "internalType": "uint256",
          "name": "value",
          "type": "uint256"
        }
      ],
      "name": "Transfer",
      "type": "event"
    },
    {
      "inputs": [
        {
          "internalType": "address",
          "name": "owner",
          "type": "address"
        },
        {
          "internalType": "address",
          "name": "spender",
          "type": "address"
        }
      ],
      "name": "allowance",
      "outputs": [
        {
          "internalType": "uint256",
          "name": "",
          "type": "uint256"
        }
      ],
      "stateMutability": "view",
      "type": "function"
    },
    {
      "inputs": [
        {
          "internalType": "address",
          "name": "spender",
          "type": "address"
        },
        {
          "internalType": "uint256",
          "name": "amount",
          "type": "uint256"
        }
      ],
      "name": "approve",
      "outputs": [
        {
          "internalType": "bool",
          "name": "",
          "type": "bool"
        }
      ],
      "stateMutability": "nonpayable",
      "type": "function"
    },
    {
      "inputs": [
        {
          "internalType": "address",
          "name": "account",
          "type": "address"
        }
      ],
      "name": "balanceOf",
      "outputs": [
        {
          "internalType": "uint256",
          "name": "",
          "type": "uint256"
        }
      ],
      "stateMutability": "view",
      "type": "function"
    },
    {
      "inputs": [],
      "name": "decimals",
      "outputs": [
        {
          "internalType": "uint8",
          "name": "",
          "type": "uint8"
        }
      ],
      "stateMutability": "view",
      "type": "function"
    },
    {
      "inputs": [
        {
          "internalType": "address",
          "name": "spender",
          "type": "address"
        },
        {
          "internalType": "uint256",
          "name": "subtractedValue",
          "type": "uint256"
        }
      ],
      "name": "decreaseAllowance",
      "outputs": [
        {
          "internalType": "bool",
          "name": "",
          "type": "bool"
        }
      ],
      "stateMutability": "nonpayable",
      "type": "function"
    },
    {
      "inputs": [
        {
          "internalType": "address",
          "name": "spender",
          "type": "address"
        },
        {
          "internalType": "uint256",
          "name": "addedValue",
          "type": "uint256"
        }
      ],
      "name": "increaseAllowance",
      "outputs": [
        {
          "internalType": "bool",
          "name": "",
          "type": "bool"
        }
      ],
      "stateMutability": "nonpayable",
      "type": "function"
    },
    {
      "inputs": [],
      "name": "name",
      "outputs": [
        {
          "internalType": "string",
          "name": "",
          "type": "string"
        }
      ],
      "stateMutability": "view",
      "type": "function"
    },
    {
      "inputs": [],
      "name": "symbol",
      "outputs": [
        {
          "internalType": "string",
          "name": "",
          "type": "string"
        }
      ],
      "stateMutability": "view",
      "type": "function"
    },
    {
      "inputs": [],
      "name": "totalSupply",
      "outputs": [
        {
          "internalType": "uint256",
          "name": "",
          "type": "uint256"
        }
      ],
      "stateMutability": "view",
      "type": "function"
    },
    {
      "inputs": [],
      "name": "maxSupply",
      "outputs": [
        {
          "internalType": "uint256",
          "name": "",
          "type": "uint256"
        }
      ],
      "stateMutability": "view",
      "type": "function"
    },
    {
      "inputs": [
        {
          "internalType": "address",
          "name": "to",
          "type": "address"
        },
        {
          "internalType": "uint256",
          "name": "amount",
          "type": "uint256"
        }
      ],
      "name": "mint",
      "outputs": [],
      "stateMutability": "nonpayable",
      "type": "function"
    },
    {
      "inputs": [
        {
          "internalType": "address",
          "name": "recipient",
          "type": "address"
        },
        {
          "internalType": "uint256",
          "name": "amount",
          "type": "uint256"
        }
      ],
      "name": "transfer",
      "outputs": [
        {
          "internalType": "bool",
          "name": "",
          "type": "bool"
        }
      ],
      "stateMutability": "nonpayable",
      "type": "function"
    },
    {
      "inputs": [
        {
          "internalType": "address",
          "name": "sender",
          "type": "address"
        },
        {
          "internalType": "address",
          "name": "recipient",
          "type": "address"
        },
        {
          "internalType": "uint256",
          "name": "amount",
          "type": "uint256"
        }
      ],
      "name": "transferFrom",
      "outputs": [
        {
          "internalType": "bool",
          "name": "",
          "type": "bool"
        }
      ],
      "stateMutability": "nonpayable",
      "type": "function"
    }
  ],
  "bytecode": "0x60806040523480156200001157600080fd5b5060405162001977380380620019778339818101604052810190620000379190620001d5565b6040518060400160405280600b81526020017f437573746f6d546f6b656e0000000000000000000000000000000000000000008152506040518060400160405280600381526020017f43544b00000000000000000000000000000000000000000000000000000000008152508160039080519060200190620000bb929190620000e5565b508060049080519060200190620000d4929190620000e5565b50505080600581905550506200026b565b828054620000f39062000236565b90600052602060002090601f01602090048101928262000117576000855562000163565b82601f106200013257805160ff191683800117855562000163565b8280016001018555821562000163579182015b828111156200016257825182559160200191906001019062000145565b5b50905062000172919062000176565b5090565b5b808211156200019157600081600090555060010162000177565b5090565b600080fd5b6000819050919050565b620001af816200019a565b8114620001bb57600080fd5b50565b600081519050620001cf81620001a4565b92915050565b600060208284031215620001ee57620001ed62000195565b5b6000620001fe84828501620001be565b91505092915050565b7f4e487b7100000000000000000000000000000000000000000000000000000000600052602260045260246000fd5b600060028204905060018216806200024f57607f821691505b60208210810362000265576200026462000207565b5b50919050565b6116fc806200027b6000396000f3fe608060405234801561001057600080fd5b50600436106100cf5760003560e01c806340c10f191161008c578063a457c2d711610066578063a457c2d714610228578063a9059cbb14610258578063d5abeb0114610288578063dd62ed3e146102a6576100cf565b806340c10f19146101be57806370a08231146101da57806395d89b411461020a576100cf565b806306fdde03146100d4578063095ea7b3146100f257806318160ddd1461012257806323b872dd14610140578063313ce56714610170578063395093511461018e575b600080fd5b6100dc6102d6565b6040516100e99190610e4d565b60405180910390f35b61010c60048036038101906101079190610f08565b610368565b6040516101199190610f63565b60405180910390f35b61012a61038b565b6040516101379190610f8d565b60405180910390f35b61015a60048036038101906101559190610fa8565b610395565b6040516101679190610f63565b60405180910390f35b61017861041c565b6040516101859190611017565b60405180910390f35b6101a860048036038101906101a39190610f08565b610425565b6040516101b59190610f63565b60405180910390f35b6101d860048036038101906101d39190610f08565b61045c565b005b6101f460048036038101906101ef9190611032565b6104c8565b6040516102019190610f8d565b60405180910390f35b610212610510565b60405161021f9190610e4d565b60405180910390f35b610242600480360381019061023d9190610f08565b6105a2565b60405161024f9190610f63565b60405180910390f35b610272600480360381019061026d9190610f08565b610619565b60405161027f9190610f63565b60405180910390f35b61029061069e565b60405161029d9190610f8d565b60405180910390f35b6102c060048036038101906102bb919061105f565b6106a8565b6040516102cd9190610f8d565b60405180910390f35b6060600380546102e5906110ce565b80601f0160208091040260200160405190810160405280929190818152602001828054610311906110ce565b801561035e5780601f106103335761010080835404028352916020019161035e565b820191906000526020600020905b81548152906001019060200180831161034157829003601f168201915b5050505050905090565b60008061037361072f565b9050610380818585610737565b600191505092915050565b6000600254905090565b600082600073ffffffffffffffffffffffffffffffffffffffff168173ffffffffffffffffffffffffffffffffffffffff1603610407576040517f08c379a00000000000000000000000000000000000000000000000000000000081526004016103fe90611171565b60405180910390fd5b610412858585610900565b9150509392505050565b60006012905090565b60008061043061072f565b905061045181858561044285896106a8565b61044c91906111c0565b610737565b600191505092915050565b8061046561069e565b8161046e61038b565b61047891906111c0565b11156104b9576040517f08c379a00000000000000000000000000000000000000000000000000000000081526004016104b090611262565b60405180910390fd5b6104c3838361092f565b505050565b60008060008373ffffffffffffffffffffffffffffffffffffffff1673ffffffffffffffffffffffffffffffffffffffff168152602001908152602001600020549050919050565b60606004805461051f906110ce565b80601f016020809104026020016040519081016040528092919081815260200182805461054b906110ce565b80156105985780601f1061056d57610100808354040283529160200191610598565b820191906000526020600020905b81548152906001019060200180831161057b57829003601f168201915b5050505050905090565b6000806105ad61072f565b905060006105bb82866106a8565b905083811015610600576040517f08c379a00000000000000000000000000000000000000000000000000000000081526004016105f7906112f4565b60405180910390fd5b61060d8286868403610737565b60019250505092915050565b600082600073ffffffffffffffffffffffffffffffffffffffff168173ffffffffffffffffffffffffffffffffffffffff160361068b576040517f08c379a000000000000000000000000000000000000000000000000000000000815260040161068290611171565b60405180910390fd5b6106958484610a85565b91505092915050565b6000600554905090565b6000600160008473ffffffffffffffffffffffffffffffffffffffff1673ffffffffffffffffffffffffffffffffffffffff16815260200190815260200160002060008373ffffffffffffffffffffffffffffffffffffffff1673ffffffffffffffffffffffffffffffffffffffff16815260200190815260200160002054905092915050565b600033905090565b600073ffffffffffffffffffffffffffffffffffffffff168373ffffffffffffffffffffffffffffffffffffffff16036107a6576040517f08c379a000000000000000000000000000000000000000000000000000000000815260040161079d90611386565b60405180910390fd5b600073ffffffffffffffffffffffffffffffffffffffff168273ffffffffffffffffffffffffffffffffffffffff1603610815576040517f08c379a000000000000000000000000000000000000000000000000000000000815260040161080c90611418565b60405180910390fd5b80600160008573ffffffffffffffffffffffffffffffffffffffff1673ffffffffffffffffffffffffffffffffffffffff16815260200190815260200160002060008473ffffffffffffffffffffffffffffffffffffffff1673ffffffffffffffffffffffffffffffffffffffff168152602001908152602001600020819055508173ffffffffffffffffffffffffffffffffffffffff168373ffffffffffffffffffffffffffffffffffffffff167f8c5be1e5ebec7d5bd14f71427d1e84f3dd0314c0f7b2291e5b200ac8c7c3b925836040516108f39190610f8d565b60405180910390a3505050565b60008061090b61072f565b9050610918858285610aa8565b610923858585610b34565b60019150509392505050565b600073ffffffffffffffffffffffffffffffffffffffff168273ffffffffffffffffffffffffffffffffffffffff160361099e576040517f08c379a000000000000000000000000000000000000000000000000000000000815260040161099590611484565b60405180910390fd5b6109aa60008383610daa565b80600260008282546109bc91906111c0565b92505081905550806000808473ffffffffffffffffffffffffffffffffffffffff1673ffffffffffffffffffffffffffffffffffffffff168152602001908152602001600020600082825401925050819055508173ffffffffffffffffffffffffffffffffffffffff16600073ffffffffffffffffffffffffffffffffffffffff167fddf252ad1be2c89b69c2b068fc378daa952ba7f163c4a11628f55a4df523b3ef83604051610a6d9190610f8d565b60405180910390a3610a8160008383610daf565b5050565b600080610a9061072f565b9050610a9d818585610b34565b600191505092915050565b6000610ab484846106a8565b90507fffffffffffffffffffffffffffffffffffffffffffffffffffffffffffffffff8114610b2e5781811015610b20576040517f08c379a0000000000000000000000000000000000000000000000000000000008152600401610b17906114f0565b60405180910390fd5b610b2d8484848403610737565b5b50505050565b600073ffffffffffffffffffffffffffffffffffffffff168373ffffffffffffffffffffffffffffffffffffffff1603610ba3576040517f08c379a0000000000000000000000000000000000000000000000000000000008152600401610b9a90611582565b60405180910390fd5b600073ffffffffffffffffffffffffffffffffffffffff168273ffffffffffffffffffffffffffffffffffffffff1603610c12576040517f08c379a0000000000000000000000000000000000000000000000000000000008152600401610c0990611614565b60405180910390fd5b610c1d838383610daa565b60008060008573ffffffffffffffffffffffffffffffffffffffff1673ffffffffffffffffffffffffffffffffffffffff16815260200190815260200160002054905081811015610ca3576040517f08c379a0000000000000000000000000000000000000000000000000000000008152600401610c9a906116a6565b60405180910390fd5b8181036000808673ffffffffffffffffffffffffffffffffffffffff1673ffffffffffffffffffffffffffffffffffffffff16815260200190815260200160002081905550816000808573ffffffffffffffffffffffffffffffffffffffff1673ffffffffffffffffffffffffffffffffffffffff168152602001908152602001600020600082825401925050819055508273ffffffffffffffffffffffffffffffffffffffff168473ffffffffffffffffffffffffffffffffffffffff167fddf252ad1be2c89b69c2b068fc378daa952ba7f163c4a11628f55a4df523b3ef84604051610d919190610f8d565b60405180910390a3610da4848484610daf565b50505050565b505050565b505050565b600081519050919050565b600082825260208201905092915050565b60005b83811015610dee578082015181840152602081019050610dd3565b83811115610dfd576000848401525b50505050565b6000601f19601f8301169050919050565b6000610e1f82610db4565b610e298185610dbf565b9350610e39818560208601610dd0565b610e4281610e03565b840191505092915050565b60006020820190508181036000830152610e678184610e14565b905092915050565b600080fd5b600073ffffffffffffffffffffffffffffffffffffffff82169050919050565b6000610e9f82610e74565b9050919050565b610eaf81610e94565b8114610eba57600080fd5b50565b600081359050610ecc81610ea6565b92915050565b6000819050919050565b610ee581610ed2565b8114610ef057600080fd5b50565b600081359050610f0281610edc565b92915050565b60008060408385031215610f1f57610f1e610e6f565b5b6000610f2d85828601610ebd565b9250506020610f3e85828601610ef3565b9150509250929050565b60008115159050919050565b610f5d81610f48565b82525050565b6000602082019050610f786000830184610f54565b92915050565b610f8781610ed2565b82525050565b6000602082019050610fa26000830184610f7e565b92915050565b600080600060608486031215610fc157610fc0610e6f565b5b6000610fcf86828701610ebd565b9350506020610fe086828701610ebd565b9250506040610ff186828701610ef3565b9150509250925092565b600060ff82169050919050565b61101181610ffb565b82525050565b600060208201905061102c6000830184611008565b92915050565b60006020828403121561104857611047610e6f565b5b600061105684828501610ebd565b91505092915050565b6000806040838503121561107657611075610e6f565b5b600061108485828601610ebd565b925050602061109585828601610ebd565b9150509250929050565b7f4e487b7100000000000000000000000000000000000000000000000000000000600052602260045260246000fd5b600060028204905060018216806110e657607f821691505b6020821081036110f9576110f861109f565b5b50919050565b7f43616e6e6f74207472616e7366657220746f20746865207a65726f206164647260008201527f6573730000000000000000000000000000000000000000000000000000000000602082015250565b600061115b602383610dbf565b9150611166826110ff565b604082019050919050565b6000602082019050818103600083015261118a8161114e565b9050919050565b7f4e487b7100000000000000000000000000000000000000000000000000000000600052601160045260246000fd5b60006111cb82610ed2565b91506111d683610ed2565b9250827fffffffffffffffffffffffffffffffffffffffffffffffffffffffffffffffff0382111561120b5761120a611191565b5b828201905092915050565b7f43616e6e6f74206d696e74206d6f7265207468616e206d617820737570706c79600082015250565b600061124c602083610dbf565b915061125782611216565b602082019050919050565b6000602082019050818103600083015261127b8161123f565b9050919050565b7f45524332303a2064656372656173656420616c6c6f77616e63652062656c6f7760008201527f207a65726f000000000000000000000000000000000000000000000000000000602082015250565b60006112de602583610dbf565b91506112e982611282565b604082019050919050565b6000602082019050818103600083015261130d816112d1565b9050919050565b7f45524332303a20617070726f76652066726f6d20746865207a65726f2061646460008201527f7265737300000000000000000000000000000000000000000000000000000000602082015250565b6000611370602483610dbf565b915061137b82611314565b604082019050919050565b6000602082019050818103600083015261139f81611363565b9050919050565b7f45524332303a20617070726f766520746f20746865207a65726f20616464726560008201527f7373000000000000000000000000000000000000000000000000000000000000602082015250565b6000611402602283610dbf565b915061140d826113a6565b604082019050919050565b60006020820190508181036000830152611431816113f5565b9050919050565b7f45524332303a206d696e7420746f20746865207a65726f206164647265737300600082015250565b600061146e601f83610dbf565b915061147982611438565b602082019050919050565b6000602082019050818103600083015261149d81611461565b9050919050565b7f45524332303a20696e73756666696369656e7420616c6c6f77616e6365000000600082015250565b60006114da601d83610dbf565b91506114e5826114a4565b602082019050919050565b60006020820190508181036000830152611509816114cd565b9050919050565b7f45524332303a207472616e736665722066726f6d20746865207a65726f20616460008201527f6472657373000000000000000000000000000000000000000000000000000000602082015250565b600061156c602583610dbf565b915061157782611510565b604082019050919050565b6000602082019050818103600083015261159b8161155f565b9050919050565b7f45524332303a207472616e7366657220746f20746865207a65726f206164647260008201527f6573730000000000000000000000000000000000000000000000000000000000602082015250565b60006115fe602383610dbf565b9150611609826115a2565b604082019050919050565b6000602082019050818103600083015261162d816115f1565b9050919050565b7f45524332303a207472616e7366657220616d6f756e742065786365656473206260008201527f616c616e63650000000000000000000000000000000000000000000000000000602082015250565b6000611690602683610dbf565b915061169b82611634565b604082019050919050565b600060208201905081810360008301526116bf81611683565b905091905056fea2646970667358221220276db3caee429632ef2b895d1e3096f7868bcf64980286d80d4a9cfef69841d964736f6c634300080d0033",
  "immutableReferences": {},
  "source": "// SPDX-License-Identifier: MIT\r\npragma solidity 0.8.13;\r\n\r\nimport \"@openzeppelin/contracts/token/ERC20/ERC20.sol\";\r\n\r\ncontract CustomToken is ERC20 {\r\n    uint256 private _maxSupply;\r\n\r\n    constructor(uint256 maxSupply_) ERC20(\"CustomToken\", \"CTK\") {\r\n        _maxSupply = maxSupply_;\r\n    }\r\n\r\n    modifier validRecipient(address _recipient) {\r\n        require(\r\n            _recipient != address(0),\r\n            \"Cannot transfer to the zero address\"\r\n        );\r\n        _;\r\n    }\r\n\r\n    modifier validSupply(uint256 _amount) {\r\n        require(\r\n            totalSupply() + _amount <= maxSupply(),\r\n            \"Cannot mint more than max supply\"\r\n        );\r\n        _;\r\n    }\r\n\r\n    function maxSupply() public view virtual returns (uint256) {\r\n        return _maxSupply;\r\n    }\r\n\r\n    function mint(address to, uint256 amount) public validSupply(amount) {\r\n        _mint(to, amount);\r\n    }\r\n\r\n    function transfer(\r\n        address recipient,\r\n        uint256 amount\r\n    ) public override validRecipient(recipient) returns (bool) {\r\n        return super.transfer(recipient, amount);\r\n    }\r\n\r\n    function transferFrom(\r\n        address sender,\r\n        address recipient,\r\n        uint256 amount\r\n    ) public override validRecipient(recipient) returns (bool) {\r\n        return super.transferFrom(sender, recipient, amount);\r\n    }\r\n}\r\n",
  "sourcePath": "C:\\Users\\jiriv\\Documents\\kola\\multisig-wallet-2024\\contracts\\ModifiedERC20.sol",
  "compiler": {
    "name": "solc",
    "version": "0.8.13+commit.abaa5c0e.Emscripten.clang"
  },
  "schemaVersion": "3.4.16",
  "updatedAt": "2024-04-10T18:18:32.186Z",
  "devdoc": {
    "kind": "dev",
    "methods": {
      "allowance(address,address)": {
        "details": "See {IERC20-allowance}."
      },
      "approve(address,uint256)": {
        "details": "See {IERC20-approve}. NOTE: If `amount` is the maximum `uint256`, the allowance is not updated on `transferFrom`. This is semantically equivalent to an infinite approval. Requirements: - `spender` cannot be the zero address."
      },
      "balanceOf(address)": {
        "details": "See {IERC20-balanceOf}."
      },
      "decimals()": {
        "details": "Returns the number of decimals used to get its user representation. For example, if `decimals` equals `2`, a balance of `505` tokens should be displayed to a user as `5.05` (`505 / 10 ** 2`). Tokens usually opt for a value of 18, imitating the relationship between Ether and Wei. This is the default value returned by this function, unless it's overridden. NOTE: This information is only used for _display_ purposes: it in no way affects any of the arithmetic of the contract, including {IERC20-balanceOf} and {IERC20-transfer}."
      },
      "decreaseAllowance(address,uint256)": {
        "details": "Atomically decreases the allowance granted to `spender` by the caller. This is an alternative to {approve} that can be used as a mitigation for problems described in {IERC20-approve}. Emits an {Approval} event indicating the updated allowance. Requirements: - `spender` cannot be the zero address. - `spender` must have allowance for the caller of at least `subtractedValue`."
      },
      "increaseAllowance(address,uint256)": {
        "details": "Atomically increases the allowance granted to `spender` by the caller. This is an alternative to {approve} that can be used as a mitigation for problems described in {IERC20-approve}. Emits an {Approval} event indicating the updated allowance. Requirements: - `spender` cannot be the zero address."
      },
      "name()": {
        "details": "Returns the name of the token."
      },
      "symbol()": {
        "details": "Returns the symbol of the token, usually a shorter version of the name."
      },
      "totalSupply()": {
        "details": "See {IERC20-totalSupply}."
      }
    },
    "version": 1
  },
  "userdoc": {
    "kind": "user",
    "methods": {},
    "version": 1
  }
}