{
  "contractName": "MultiSigWallet",
  "abi": [
    {
      "inputs": [
        {
          "internalType": "address[]",
          "name": "_owners",
          "type": "address[]"
        },
        {
          "internalType": "uint256",
          "name": "_requiredSigs",
          "type": "uint256"
        }
      ],
      "stateMutability": "nonpayable",
      "type": "constructor"
    },
    {
      "anonymous": false,
      "inputs": [
        {
          "indexed": true,
          "internalType": "address",
          "name": "sender",
          "type": "address"
        },
        {
          "indexed": true,
          "internalType": "uint256",
          "name": "transactionId",
          "type": "uint256"
        }
      ],
      "name": "Confirmation",
      "type": "event"
    },
    {
      "anonymous": false,
      "inputs": [
        {
          "indexed": true,
          "internalType": "address",
          "name": "sender",
          "type": "address"
        },
        {
          "indexed": false,
          "internalType": "uint256",
          "name": "value",
          "type": "uint256"
        }
      ],
      "name": "Deposit",
      "type": "event"
    },
    {
      "anonymous": false,
      "inputs": [
        {
          "indexed": true,
          "internalType": "uint256",
          "name": "transactionId",
          "type": "uint256"
        }
      ],
      "name": "Execution",
      "type": "event"
    },
    {
      "anonymous": false,
      "inputs": [
        {
          "indexed": true,
          "internalType": "uint256",
          "name": "transactionId",
          "type": "uint256"
        }
      ],
      "name": "ExecutionFailure",
      "type": "event"
    },
    {
      "anonymous": false,
      "inputs": [
        {
          "indexed": false,
          "internalType": "uint256",
          "name": "curBalance",
          "type": "uint256"
        },
        {
          "indexed": false,
          "internalType": "uint256",
          "name": "requestedBalance",
          "type": "uint256"
        }
      ],
      "name": "NotEnoughBalance",
      "type": "event"
    },
    {
      "anonymous": false,
      "inputs": [
        {
          "indexed": true,
          "internalType": "uint256",
          "name": "transactionId",
          "type": "uint256"
        }
      ],
      "name": "Submission",
      "type": "event"
    },
    {
      "inputs": [],
      "name": "MAX_OWNER_COUNT",
      "outputs": [
        {
          "internalType": "uint256",
          "name": "",
          "type": "uint256"
        }
      ],
      "stateMutability": "view",
      "type": "function",
      "constant": true
    },
    {
      "inputs": [],
      "name": "TMP_CONSTANT",
      "outputs": [
        {
          "internalType": "uint256",
          "name": "",
          "type": "uint256"
        }
      ],
      "stateMutability": "view",
      "type": "function",
      "constant": true
    },
    {
      "inputs": [],
      "name": "XLOGIN",
      "outputs": [
        {
          "internalType": "string",
          "name": "",
          "type": "string"
        }
      ],
      "stateMutability": "view",
      "type": "function",
      "constant": true
    },
    {
      "inputs": [
        {
          "internalType": "uint256",
          "name": "",
          "type": "uint256"
        }
      ],
      "name": "executed",
      "outputs": [
        {
          "internalType": "bool",
          "name": "",
          "type": "bool"
        }
      ],
      "stateMutability": "view",
      "type": "function",
      "constant": true
    },
    {
      "inputs": [
        {
          "internalType": "address",
          "name": "",
          "type": "address"
        }
      ],
      "name": "isOwner",
      "outputs": [
        {
          "internalType": "bool",
          "name": "",
          "type": "bool"
        }
      ],
      "stateMutability": "view",
      "type": "function",
      "constant": true
    },
    {
      "inputs": [],
      "name": "minSignatures",
      "outputs": [
        {
          "internalType": "uint256",
          "name": "",
          "type": "uint256"
        }
      ],
      "stateMutability": "view",
      "type": "function",
      "constant": true
    },
    {
      "inputs": [
        {
          "internalType": "uint256",
          "name": "",
          "type": "uint256"
        }
      ],
      "name": "owners",
      "outputs": [
        {
          "internalType": "address",
          "name": "",
          "type": "address"
        }
      ],
      "stateMutability": "view",
      "type": "function",
      "constant": true
    },
    {
      "inputs": [
        {
          "internalType": "uint256",
          "name": "",
          "type": "uint256"
        },
        {
          "internalType": "address",
          "name": "",
          "type": "address"
        }
      ],
      "name": "signatures",
      "outputs": [
        {
          "internalType": "bool",
          "name": "",
          "type": "bool"
        }
      ],
      "stateMutability": "view",
      "type": "function",
      "constant": true
    },
    {
      "inputs": [],
      "name": "transactionCount",
      "outputs": [
        {
          "internalType": "uint256",
          "name": "",
          "type": "uint256"
        }
      ],
      "stateMutability": "view",
      "type": "function",
      "constant": true
    },
    {
      "inputs": [
        {
          "internalType": "uint256",
          "name": "",
          "type": "uint256"
        }
      ],
      "name": "transactions",
      "outputs": [
        {
          "internalType": "address",
          "name": "destination",
          "type": "address"
        },
        {
          "internalType": "uint256",
          "name": "value",
          "type": "uint256"
        }
      ],
      "stateMutability": "view",
      "type": "function",
      "constant": true
    },
    {
      "stateMutability": "payable",
      "type": "receive",
      "payable": true
    },
    {
      "inputs": [
        {
          "internalType": "address",
          "name": "destination",
          "type": "address"
        },
        {
          "internalType": "uint256",
          "name": "value",
          "type": "uint256"
        }
      ],
      "name": "submitTransaction",
      "outputs": [
        {
          "internalType": "uint256",
          "name": "transactionId",
          "type": "uint256"
        }
      ],
      "stateMutability": "nonpayable",
      "type": "function"
    },
    {
      "inputs": [
        {
          "internalType": "uint256",
          "name": "transactionId",
          "type": "uint256"
        }
      ],
      "name": "confirmTransaction",
      "outputs": [],
      "stateMutability": "nonpayable",
      "type": "function"
    },
    {
      "inputs": [
        {
          "internalType": "uint256",
          "name": "transactionId",
          "type": "uint256"
        }
      ],
      "name": "executeTransaction",
      "outputs": [],
      "stateMutability": "nonpayable",
      "type": "function"
    },
    {
      "inputs": [
        {
          "internalType": "uint256",
          "name": "transactionId",
          "type": "uint256"
        }
      ],
      "name": "isTxConfirmed",
      "outputs": [
        {
          "internalType": "bool",
          "name": "",
          "type": "bool"
        }
      ],
      "stateMutability": "view",
      "type": "function",
      "constant": true
    },
    {
      "inputs": [
        {
          "internalType": "uint256",
          "name": "transactionId",
          "type": "uint256"
        }
      ],
      "name": "getSignatureCount",
      "outputs": [
        {
          "internalType": "uint256",
          "name": "count",
          "type": "uint256"
        }
      ],
      "stateMutability": "view",
      "type": "function",
      "constant": true
    },
    {
      "inputs": [],
      "name": "getOwners",
      "outputs": [
        {
          "internalType": "address[]",
          "name": "",
          "type": "address[]"
        }
      ],
      "stateMutability": "view",
      "type": "function",
      "constant": true
    },
    {
      "inputs": [
        {
          "internalType": "uint256",
          "name": "transactionId",
          "type": "uint256"
        }
      ],
      "name": "getOwnersWhoSignedTx",
      "outputs": [
        {
          "internalType": "address[]",
          "name": "",
          "type": "address[]"
        }
      ],
      "stateMutability": "view",
      "type": "function",
      "constant": true
    }
  ],
  "bytecode": "0x60806040523480156200001157600080fd5b5060405162002108380380620021088339818101604052810190620000379190620005f1565b815181600a8211806200004a5750600081145b80620000565750600a81115b80620000625750600082145b15620000a5576040517f08c379a00000000000000000000000000000000000000000000000000000000081526004016200009c90620006de565b60405180910390fd5b60005b8451811015620000f657620000e0858281518110620000cc57620000cb62000700565b5b6020026020010151620002a560201b60201c565b8080620000ed906200075e565b915050620000a8565b5060005b600185516200010a9190620007ab565b811015620001e15784600182620001229190620007e6565b8151811062000136576200013562000700565b5b602002602001015173ffffffffffffffffffffffffffffffffffffffff168582815181106200016a576200016962000700565b5b602002602001015173ffffffffffffffffffffffffffffffffffffffff1603620001cb576040517f08c379a0000000000000000000000000000000000000000000000000000000008152600401620001c29062000893565b60405180910390fd5b8080620001d8906200075e565b915050620000fa565b5060005b84518110156200027a576001600360008784815181106200020b576200020a62000700565b5b602002602001015173ffffffffffffffffffffffffffffffffffffffff1673ffffffffffffffffffffffffffffffffffffffff16815260200190815260200160002060006101000a81548160ff021916908315150217905550808062000271906200075e565b915050620001e5565b508360049080519060200190620002939291906200031a565b50826005819055505050505062000927565b600073ffffffffffffffffffffffffffffffffffffffff168173ffffffffffffffffffffffffffffffffffffffff160362000317576040517f08c379a00000000000000000000000000000000000000000000000000000000081526004016200030e9062000905565b60405180910390fd5b50565b82805482825590600052602060002090810192821562000396579160200282015b82811115620003955782518260006101000a81548173ffffffffffffffffffffffffffffffffffffffff021916908373ffffffffffffffffffffffffffffffffffffffff160217905550916020019190600101906200033b565b5b509050620003a59190620003a9565b5090565b5b80821115620003c4576000816000905550600101620003aa565b5090565b6000604051905090565b600080fd5b600080fd5b600080fd5b6000601f19601f8301169050919050565b7f4e487b7100000000000000000000000000000000000000000000000000000000600052604160045260246000fd5b6200042c82620003e1565b810181811067ffffffffffffffff821117156200044e576200044d620003f2565b5b80604052505050565b600062000463620003c8565b905062000471828262000421565b919050565b600067ffffffffffffffff821115620004945762000493620003f2565b5b602082029050602081019050919050565b600080fd5b600073ffffffffffffffffffffffffffffffffffffffff82169050919050565b6000620004d782620004aa565b9050919050565b620004e981620004ca565b8114620004f557600080fd5b50565b6000815190506200050981620004de565b92915050565b600062000526620005208462000476565b62000457565b905080838252602082019050602084028301858111156200054c576200054b620004a5565b5b835b81811015620005795780620005648882620004f8565b8452602084019350506020810190506200054e565b5050509392505050565b600082601f8301126200059b576200059a620003dc565b5b8151620005ad8482602086016200050f565b91505092915050565b6000819050919050565b620005cb81620005b6565b8114620005d757600080fd5b50565b600081519050620005eb81620005c0565b92915050565b600080604083850312156200060b576200060a620003d2565b5b600083015167ffffffffffffffff8111156200062c576200062b620003d7565b5b6200063a8582860162000583565b92505060206200064d85828601620005da565b9150509250929050565b600082825260208201905092915050565b7f56616c69646174696f6e206f66206e2d6f662d6d206d756c746973696720736560008201527f7474696e67206661696c65640000000000000000000000000000000000000000602082015250565b6000620006c6602c8362000657565b9150620006d38262000668565b604082019050919050565b60006020820190508181036000830152620006f981620006b7565b9050919050565b7f4e487b7100000000000000000000000000000000000000000000000000000000600052603260045260246000fd5b7f4e487b7100000000000000000000000000000000000000000000000000000000600052601160045260246000fd5b60006200076b82620005b6565b91507fffffffffffffffffffffffffffffffffffffffffffffffffffffffffffffffff8203620007a0576200079f6200072f565b5b600182019050919050565b6000620007b882620005b6565b9150620007c583620005b6565b925082821015620007db57620007da6200072f565b5b828203905092915050565b6000620007f382620005b6565b91506200080083620005b6565b9250827fffffffffffffffffffffffffffffffffffffffffffffffffffffffffffffffff038211156200083857620008376200072f565b5b828201905092915050565b7f41207265706561746564206f776e6572207061737365642e0000000000000000600082015250565b60006200087b60188362000657565b9150620008888262000843565b602082019050919050565b60006020820190508181036000830152620008ae816200086c565b9050919050565b7f4e756c6c20616464726573732e00000000000000000000000000000000000000600082015250565b6000620008ed600d8362000657565b9150620008fa82620008b5565b602082019050919050565b600060208201905081810360008301526200092081620008de565b9050919050565b6117d180620009376000396000f3fe6080604052600436106101025760003560e01c806383b316c011610095578063c01a8c8411610064578063c01a8c84146103fb578063d3ecebd714610424578063d74f8edd14610461578063dfeada121461048c578063ee22610b146104b757610161565b806383b316c01461032a5780639ace38c214610367578063a0e67e2b146103a5578063b77bf600146103d057610161565b8063238acaa2116100d1578063238acaa21461025a5780632f54bf6e1461028557806369028e67146102c25780637743007d146102ed57610161565b806301432af614610166578063025e7c27146101a35780631aea64c2146101e05780631d43b6531461021d57610161565b3661016157600034111561015f573373ffffffffffffffffffffffffffffffffffffffff167fe1fffcc4923d04b559f4d29a8bfc6cda04eb5b0d3c460751c2402c5c5cc9109c346040516101569190611037565b60405180910390a25b005b600080fd5b34801561017257600080fd5b5061018d60048036038101906101889190611083565b6104e0565b60405161019a91906111a0565b60405180910390f35b3480156101af57600080fd5b506101ca60048036038101906101c59190611083565b6106a0565b6040516101d791906111d1565b60405180910390f35b3480156101ec57600080fd5b5061020760048036038101906102029190611083565b6106df565b6040516102149190611207565b60405180910390f35b34801561022957600080fd5b50610244600480360381019061023f919061124e565b6107da565b6040516102519190611037565b60405180910390f35b34801561026657600080fd5b5061026f6107f7565b60405161027c9190611037565b60405180910390f35b34801561029157600080fd5b506102ac60048036038101906102a7919061128e565b6107fd565b6040516102b99190611207565b60405180910390f35b3480156102ce57600080fd5b506102d761081d565b6040516102e49190611354565b60405180910390f35b3480156102f957600080fd5b50610314600480360381019061030f9190611083565b610856565b6040516103219190611037565b60405180910390f35b34801561033657600080fd5b50610351600480360381019061034c9190611376565b610935565b60405161035e9190611207565b60405180910390f35b34801561037357600080fd5b5061038e60048036038101906103899190611083565b610964565b60405161039c9291906113b6565b60405180910390f35b3480156103b157600080fd5b506103ba6109a8565b6040516103c791906111a0565b60405180910390f35b3480156103dc57600080fd5b506103e5610a36565b6040516103f29190611037565b60405180910390f35b34801561040757600080fd5b50610422600480360381019061041d9190611083565b610a3c565b005b34801561043057600080fd5b5061044b60048036038101906104469190611083565b610cca565b6040516104589190611207565b60405180910390f35b34801561046d57600080fd5b50610476610cea565b6040516104839190611037565b60405180910390f35b34801561049857600080fd5b506104a1610cef565b6040516104ae9190611037565b60405180910390f35b3480156104c357600080fd5b506104de60048036038101906104d99190611083565b610cf4565b005b6060600060048054905067ffffffffffffffff811115610503576105026113df565b5b6040519080825280602002602001820160405280156105315781602001602082028036833780820191505090505b5090506000805b600480549050811015610695576001600086815260200190815260200160002060006004838154811061056e5761056d61140e565b5b9060005260206000200160009054906101000a900473ffffffffffffffffffffffffffffffffffffffff1673ffffffffffffffffffffffffffffffffffffffff1673ffffffffffffffffffffffffffffffffffffffff16815260200190815260200160002060009054906101000a900460ff161561068257600481815481106105fa576105f961140e565b5b9060005260206000200160009054906101000a900473ffffffffffffffffffffffffffffffffffffffff168383815181106106385761063761140e565b5b602002602001019073ffffffffffffffffffffffffffffffffffffffff16908173ffffffffffffffffffffffffffffffffffffffff168152505060018261067f919061146c565b91505b808061068d906114c2565b915050610538565b508192505050919050565b600481815481106106b057600080fd5b906000526020600020016000915054906101000a900473ffffffffffffffffffffffffffffffffffffffff1681565b6000806000905060005b6004805490508110156107ce576001600085815260200190815260200160002060006004838154811061071f5761071e61140e565b5b9060005260206000200160009054906101000a900473ffffffffffffffffffffffffffffffffffffffff1673ffffffffffffffffffffffffffffffffffffffff1673ffffffffffffffffffffffffffffffffffffffff16815260200190815260200160002060009054906101000a900460ff16156107a7576001826107a4919061146c565b91505b60055482036107bb576001925050506107d5565b80806107c6906114c2565b9150506106e9565b5060009150505b919050565b60006107e68383610ebe565b90506107f181610a3c565b92915050565b60055481565b60036020528060005260406000206000915054906101000a900460ff1681565b6040518060400160405280600881526020017f78766c617361313500000000000000000000000000000000000000000000000081525081565b600080600090505b60048054905081101561092f57600160008481526020019081526020016000206000600483815481106108945761089361140e565b5b9060005260206000200160009054906101000a900473ffffffffffffffffffffffffffffffffffffffff1673ffffffffffffffffffffffffffffffffffffffff1673ffffffffffffffffffffffffffffffffffffffff16815260200190815260200160002060009054906101000a900460ff161561091c57600182610919919061146c565b91505b8080610927906114c2565b91505061085e565b50919050565b60016020528160005260406000206020528060005260406000206000915091509054906101000a900460ff1681565b60006020528060005260406000206000915090508060000160009054906101000a900473ffffffffffffffffffffffffffffffffffffffff16908060010154905082565b60606004805480602002602001604051908101604052809291908181526020018280548015610a2c57602002820191906000526020600020905b8160009054906101000a900473ffffffffffffffffffffffffffffffffffffffff1673ffffffffffffffffffffffffffffffffffffffff16815260200190600101908083116109e2575b5050505050905090565b60065481565b33600360008273ffffffffffffffffffffffffffffffffffffffff1673ffffffffffffffffffffffffffffffffffffffff16815260200190815260200160002060009054906101000a900460ff16610ac9576040517f08c379a0000000000000000000000000000000000000000000000000000000008152600401610ac090611556565b60405180910390fd5b81600073ffffffffffffffffffffffffffffffffffffffff1660008083815260200190815260200160002060000160009054906101000a900473ffffffffffffffffffffffffffffffffffffffff1673ffffffffffffffffffffffffffffffffffffffff1603610b6e576040517f08c379a0000000000000000000000000000000000000000000000000000000008152600401610b65906115c2565b60405180910390fd5b82336001600083815260200190815260200160002060008273ffffffffffffffffffffffffffffffffffffffff1673ffffffffffffffffffffffffffffffffffffffff16815260200190815260200160002060009054906101000a900460ff1615610c0e576040517f08c379a0000000000000000000000000000000000000000000000000000000008152600401610c0590611654565b60405180910390fd5b600180600087815260200190815260200160002060003373ffffffffffffffffffffffffffffffffffffffff1673ffffffffffffffffffffffffffffffffffffffff16815260200190815260200160002060006101000a81548160ff021916908315150217905550843373ffffffffffffffffffffffffffffffffffffffff167f4a504a94899432a9846e1aa406dceb1bcfd538bb839071d49d1e5e23f5be30ef60405160405180910390a3610cc385610cf4565b5050505050565b60026020528060005260406000206000915054906101000a900460ff1681565b600a81565b600a81565b806002600082815260200190815260200160002060009054906101000a900460ff1615610d56576040517f08c379a0000000000000000000000000000000000000000000000000000000008152600401610d4d906116e6565b60405180910390fd5b610d5f826106df565b15610eb957600080600084815260200190815260200160002090508060010154471015610dc9577f8f0f42062a939f6a61b8293336b808ad77259cc30e54d02bf69b0cd2af24afad478260010154604051610dbb929190611706565b60405180910390a150610eba565b8060000160009054906101000a900473ffffffffffffffffffffffffffffffffffffffff1673ffffffffffffffffffffffffffffffffffffffff166108fc82600101549081150290604051600060405180830381858888f1935050505015610e895760016002600085815260200190815260200160002060006101000a81548160ff021916908315150217905550827f33e13ecb54c3076d8e8bb8c2881800a4d972b792045ffae98fdf46df365fed7560405160405180910390a2610eb7565b827f526441bb6c1aba3c9a4a6ca1d6545da9c2333c8c48343ef398eb858d72b7923660405160405180910390a25b505b5b5050565b6000610ec983610fac565b600654905060405180604001604052808473ffffffffffffffffffffffffffffffffffffffff1681526020018381525060008083815260200190815260200160002060008201518160000160006101000a81548173ffffffffffffffffffffffffffffffffffffffff021916908373ffffffffffffffffffffffffffffffffffffffff16021790555060208201518160010155905050600160066000828254610f72919061146c565b92505081905550807fc0ba8fe4b176c1714197d43b9cc6bcf797a4a7461c5fe8d0ef6e184ae7601e5160405160405180910390a292915050565b600073ffffffffffffffffffffffffffffffffffffffff168173ffffffffffffffffffffffffffffffffffffffff160361101b576040517f08c379a00000000000000000000000000000000000000000000000000000000081526004016110129061177b565b60405180910390fd5b50565b6000819050919050565b6110318161101e565b82525050565b600060208201905061104c6000830184611028565b92915050565b600080fd5b6110608161101e565b811461106b57600080fd5b50565b60008135905061107d81611057565b92915050565b60006020828403121561109957611098611052565b5b60006110a78482850161106e565b91505092915050565b600081519050919050565b600082825260208201905092915050565b6000819050602082019050919050565b600073ffffffffffffffffffffffffffffffffffffffff82169050919050565b6000611107826110dc565b9050919050565b611117816110fc565b82525050565b6000611129838361110e565b60208301905092915050565b6000602082019050919050565b600061114d826110b0565b61115781856110bb565b9350611162836110cc565b8060005b8381101561119357815161117a888261111d565b975061118583611135565b925050600181019050611166565b5085935050505092915050565b600060208201905081810360008301526111ba8184611142565b905092915050565b6111cb816110fc565b82525050565b60006020820190506111e660008301846111c2565b92915050565b60008115159050919050565b611201816111ec565b82525050565b600060208201905061121c60008301846111f8565b92915050565b61122b816110fc565b811461123657600080fd5b50565b60008135905061124881611222565b92915050565b6000806040838503121561126557611264611052565b5b600061127385828601611239565b92505060206112848582860161106e565b9150509250929050565b6000602082840312156112a4576112a3611052565b5b60006112b284828501611239565b91505092915050565b600081519050919050565b600082825260208201905092915050565b60005b838110156112f55780820151818401526020810190506112da565b83811115611304576000848401525b50505050565b6000601f19601f8301169050919050565b6000611326826112bb565b61133081856112c6565b93506113408185602086016112d7565b6113498161130a565b840191505092915050565b6000602082019050818103600083015261136e818461131b565b905092915050565b6000806040838503121561138d5761138c611052565b5b600061139b8582860161106e565b92505060206113ac85828601611239565b9150509250929050565b60006040820190506113cb60008301856111c2565b6113d86020830184611028565b9392505050565b7f4e487b7100000000000000000000000000000000000000000000000000000000600052604160045260246000fd5b7f4e487b7100000000000000000000000000000000000000000000000000000000600052603260045260246000fd5b7f4e487b7100000000000000000000000000000000000000000000000000000000600052601160045260246000fd5b60006114778261101e565b91506114828361101e565b9250827fffffffffffffffffffffffffffffffffffffffffffffffffffffffffffffffff038211156114b7576114b661143d565b5b828201905092915050565b60006114cd8261101e565b91507fffffffffffffffffffffffffffffffffffffffffffffffffffffffffffffffff82036114ff576114fe61143d565b5b600182019050919050565b7f4f776e657220646f6573206e6f742065786973742e0000000000000000000000600082015250565b60006115406015836112c6565b915061154b8261150a565b602082019050919050565b6000602082019050818103600083015261156f81611533565b9050919050565b7f5472616e73616374696f6e20646f6573206e6f7420657869742e000000000000600082015250565b60006115ac601a836112c6565b91506115b782611576565b602082019050919050565b600060208201905081810360008301526115db8161159f565b9050919050565b7f5472616e73616374696f6e2077617320616c726561647920636f6e6669726d6560008201527f642e000000000000000000000000000000000000000000000000000000000000602082015250565b600061163e6022836112c6565b9150611649826115e2565b604082019050919050565b6000602082019050818103600083015261166d81611631565b9050919050565b7f5472616e73616374696f6e2077617320616c726561647920657865637574656460008201527f2e00000000000000000000000000000000000000000000000000000000000000602082015250565b60006116d06021836112c6565b91506116db82611674565b604082019050919050565b600060208201905081810360008301526116ff816116c3565b9050919050565b600060408201905061171b6000830185611028565b6117286020830184611028565b9392505050565b7f4e756c6c20616464726573732e00000000000000000000000000000000000000600082015250565b6000611765600d836112c6565b91506117708261172f565b602082019050919050565b6000602082019050818103600083015261179481611758565b905091905056fea26469706673582212200e1431be6b8ce1232e0a097e971c57cbd3cc54243acb501ab4b03ae2aa53c5d664736f6c634300080d0033",
  "immutableReferences": {},
  "source": "// SPDX-License-Identifier: MIT\npragma solidity 0.8.13;\n\ncontract MultiSigWallet {\n    /*\n     * Data types and variables\n     */\n\n    uint public constant MAX_OWNER_COUNT = 10;\n    uint public constant TMP_CONSTANT = 10;\n    string public constant XLOGIN = \"xvlasa15\";\n\n    event Confirmation(address indexed sender, uint indexed transactionId);\n    event Submission(uint indexed transactionId);\n    event Execution(uint indexed transactionId);\n    event ExecutionFailure(uint indexed transactionId);\n    event Deposit(address indexed sender, uint value);\n    event NotEnoughBalance(uint curBalance, uint requestedBalance);\n\n    struct Transaction {\n        address destination; // receiver of crypto-tokens (Ether) sent\n        uint value; // amount to sent from contract\n    }\n\n    mapping(uint => Transaction) public transactions; // Mapping of Txn IDs to Transaction objects\n    mapping(uint => mapping(address => bool)) public signatures; // Mapping of Txn IDs to owners who already signed them\n\n    mapping(uint => bool) public executed; // Mapping of Txn IDs to their execution status (true if executed, false otherwise)\n    mapping(address => bool) public isOwner;\n\n    address[] public owners; // all possible signers of each transaction\n    uint public minSignatures; // minimum number of signatures required for execution of each transaction\n    uint public transactionCount;\n\n    /*\n     * Modifiers serve as macros in C - they are substitued to the place of usage, while placeholder \"_\" represents the body of the function that \"calls\" them\n     */\n\n    modifier checkValidSettings(uint ownerCount, uint _requiredSigs) {\n        // TASK: replace the body of this modifier to fit n-of-m multisig scheme while you verify:\n        //  1) the maximum number of owners,\n        //  2) whether required signatures is not 0 or higher than MAX_OWNER_COUNT\n        //  3) the number of owners is not 0\n        if (\n            ownerCount > MAX_OWNER_COUNT ||\n            _requiredSigs == 0 ||\n            _requiredSigs > MAX_OWNER_COUNT ||\n            ownerCount == 0\n        ) {\n            revert(\"Validation of n-of-m multisig setting failed\");\n        }\n\n        // if (_requiredSigs != 2 || ownerCount != 2) {\n        //     revert(\"Validation of 2-of-2 multisig setting failed\");\n        // }\n        _;\n    }\n    modifier ownerExists(address owner) {\n        if (!isOwner[owner]) revert(\"Owner does not exist.\");\n        _;\n    }\n    modifier txnExists(uint transactionId) {\n        if (transactions[transactionId].destination == address(0))\n            revert(\"Transaction does not exit.\");\n        _;\n    }\n    modifier confirmed(uint transactionId, address owner) {\n        if (!signatures[transactionId][owner])\n            revert(\"Confirmation of transaction by an owner does not exist.\");\n        _;\n    }\n    modifier notConfirmed(uint transactionId, address owner) {\n        if (signatures[transactionId][owner])\n            revert(\"Transaction was already confirmed.\");\n        _;\n    }\n\n    // TASK 1: write here a modifier that will protect against replay attacks. Call it at the correct place\n    // modifier nameOfModifier(uint transactionId){\n    //     ... body ...\n    //     _;\n    // }\n    modifier notExecuted(uint transactionId) {\n        if (executed[transactionId])\n            revert(\"Transaction was already executed.\");\n        _;\n    }\n\n    /**\n     * Public functions - functions can be called by anybody, so access controll must be implemented within their bodies\n     */\n\n    /// @dev Receive function -- allows to deposit Ether by anybody just by sending the value to the address of the contract\n    // 'msg.value' holds the amount of Ether sent in the current transaction and 'msg.sender' is the address of the sender of a transaction\n    receive() external payable {\n        if (msg.value > 0) {\n            emit Deposit(msg.sender, msg.value); // emiting of the event is stored at the blockchain as well. So, UI knows that Ether was deposited.\n        }\n    }\n\n    /// @dev Constructor of n-of-m multisig wallet. It sets initial owners (i.e., signers) and minimal required number of signatures.\n    /// @param _owners List of owners.\n    /// @param _requiredSigs - the minimal number of required signatures.\n    constructor(\n        address[] memory _owners,\n        uint _requiredSigs\n    ) checkValidSettings(_owners.length, _requiredSigs) {\n        // TASK 2: Modify this constructor to fit n-of-m scheme, i.e., an arbitrary number of owners and required signatures (max. is MAX_OWNER_COUNT)\n        // do not allow repeating addresses or zero addresses to be passed in _owners\n\n        for (uint i = 0; i < _owners.length; i++) {\n            checkNotNull(_owners[i]);\n        }\n\n        for (uint i = 0; i < _owners.length - 1; i++) {\n            if (_owners[i] == _owners[i + 1]) {\n                revert(\"A repeated owner passed.\");\n            }\n        }\n\n        // save owners (m) and the minimum number of signatures (n) to the storage variables of the contract\n        for (uint i = 0; i < _owners.length; i++) {\n            isOwner[_owners[i]] = true;\n        }\n\n        owners = _owners;\n        minSignatures = _requiredSigs;\n    }\n\n    /// @dev Allows an owner to submit and confirm a transaction.\n    /// @param destination Transaction target address.\n    /// @param value Transaction ether value.\n    /// @return transactionId - transaction ID.\n    function submitTransaction(\n        address destination,\n        uint value\n    ) public returns (uint transactionId) {\n        transactionId = addTransaction(destination, value);\n        confirmTransaction(transactionId);\n        return transactionId;\n    }\n\n    /// @dev Allows an owner to confirm a transaction.\n    /// @param transactionId Transaction ID.\n    function confirmTransaction(\n        uint transactionId\n    )\n        public\n        ownerExists(msg.sender)\n        txnExists(transactionId)\n        notConfirmed(transactionId, msg.sender)\n    {\n        signatures[transactionId][msg.sender] = true;\n        emit Confirmation(msg.sender, transactionId);\n        executeTransaction(transactionId);\n    }\n\n    /// @dev Allows anyone to execute a confirmed transaction.\n    /// @param transactionId Transaction ID.\n    function executeTransaction(\n        uint transactionId\n    ) public notExecuted(transactionId) {\n        // TASK 3: check whether the contract has enough balance and if not emit a new event called NotEnoughBalance(curBalance, requestedBalance)\n\n        if (isTxConfirmed(transactionId)) {\n            Transaction storage txn = transactions[transactionId];\n\n            if (address(this).balance < txn.value) {\n                emit NotEnoughBalance(address(this).balance, txn.value);\n                return;\n            }\n\n            if (payable(address(uint160(txn.destination))).send(txn.value)) {\n                executed[transactionId] = true;\n                // sending the Ether to destination address\n                emit Execution(transactionId);\n            } else {\n                emit ExecutionFailure(transactionId);\n            }\n        }\n    }\n\n    /// @dev Returns the confirmation status of a transaction - do we have enough signatures already?\n    /// @param transactionId -- Transaction ID.\n    /// @return Confirmation status: true means that TX can be executed; false - TX cannot be exectued as there are not enough signatures\n    function isTxConfirmed(uint transactionId) public view returns (bool) {\n        uint count = 0;\n        for (uint i = 0; i < owners.length; i++) {\n            if (signatures[transactionId][owners[i]]) {\n                count += 1;\n            }\n            if (count == minSignatures) {\n                return true;\n            }\n        }\n        return false;\n    }\n\n    /*\n     * Internal functions - called only from inside of the smart contract\n     */\n\n    function checkNotNull(address _address) internal pure {\n        if (_address == address(0x0)) {\n            revert(\"Null address.\");\n        }\n    }\n\n    /// @dev Adds a new transaction to the transaction mapping, if transaction does not exist yet.\n    /// @param destination Transaction target address.\n    /// @param value Transaction ether value.\n    /// @return transactionId - transaction ID.\n    function addTransaction(\n        address destination,\n        uint value\n    ) internal returns (uint transactionId) {\n        checkNotNull(destination);\n        transactionId = transactionCount;\n        transactions[transactionId] = Transaction({\n            destination: destination,\n            value: value\n        });\n        transactionCount += 1;\n        emit Submission(transactionId);\n        return transactionId;\n    }\n\n    /*\n     *  Public functions for DAPP client (i.e., simulated by tests)\n     */\n    /// @dev Returns number of signatures of a transaction.\n    /// @param transactionId Transaction ID.\n    /// @return count - the number of signatures.\n    function getSignatureCount(\n        uint transactionId\n    ) public view returns (uint count) {\n        for (uint i = 0; i < owners.length; i++)\n            if (signatures[transactionId][owners[i]]) {\n                count += 1;\n            }\n        return count;\n    }\n\n    /// @dev Returns list of all owners.\n    /// @return List of owner addresses.\n    function getOwners() public view returns (address[] memory) {\n        return owners;\n    }\n\n    // TASK 4: write a public read-only (not modifying the state) function that retrieves addresses of owners who signed a passed transaction\n\n    /// @dev Returns array with owners that confirmed a transaction.\n    /// @param transactionId Transaction ID.\n    /// @return Returns array of owner addresses.\n    function getOwnersWhoSignedTx(\n        uint transactionId\n    ) public view returns (address[] memory) {\n        address[] memory signedOwners = new address[](owners.length);\n        uint count = 0;\n        for (uint i = 0; i < owners.length; i++) {\n            if (signatures[transactionId][owners[i]]) {\n                signedOwners[count] = owners[i];\n                count += 1;\n            }\n        }\n        return signedOwners;\n    }\n}\n",
  "sourcePath": "C:\\Users\\jiriv\\Documents\\kola\\multisig-wallet-2024\\contracts\\MultisigWallet.sol",
  "compiler": {
    "name": "solc",
    "version": "0.8.13+commit.abaa5c0e.Emscripten.clang"
  },
  "schemaVersion": "3.4.16",
  "updatedAt": "2024-04-10T17:10:01.204Z",
  "networkType": "ethereum",
  "devdoc": {
    "kind": "dev",
    "methods": {
      "confirmTransaction(uint256)": {
        "details": "Allows an owner to confirm a transaction.",
        "params": {
          "transactionId": "Transaction ID."
        }
      },
      "constructor": {
        "details": "Constructor of n-of-m multisig wallet. It sets initial owners (i.e., signers) and minimal required number of signatures.",
        "params": {
          "_owners": "List of owners.",
          "_requiredSigs": "- the minimal number of required signatures."
        }
      },
      "executeTransaction(uint256)": {
        "details": "Allows anyone to execute a confirmed transaction.",
        "params": {
          "transactionId": "Transaction ID."
        }
      },
      "getOwners()": {
        "details": "Returns list of all owners.",
        "returns": {
          "_0": "List of owner addresses."
        }
      },
      "getOwnersWhoSignedTx(uint256)": {
        "details": "Returns array with owners that confirmed a transaction.",
        "params": {
          "transactionId": "Transaction ID."
        },
        "returns": {
          "_0": "Returns array of owner addresses."
        }
      },
      "getSignatureCount(uint256)": {
        "details": "Returns number of signatures of a transaction.",
        "params": {
          "transactionId": "Transaction ID."
        },
        "returns": {
          "count": "- the number of signatures."
        }
      },
      "isTxConfirmed(uint256)": {
        "details": "Returns the confirmation status of a transaction - do we have enough signatures already?",
        "params": {
          "transactionId": "-- Transaction ID."
        },
        "returns": {
          "_0": "Confirmation status: true means that TX can be executed; false - TX cannot be exectued as there are not enough signatures"
        }
      },
      "submitTransaction(address,uint256)": {
        "details": "Allows an owner to submit and confirm a transaction.",
        "params": {
          "destination": "Transaction target address.",
          "value": "Transaction ether value."
        },
        "returns": {
          "transactionId": "- transaction ID."
        }
      }
    },
    "version": 1
  },
  "userdoc": {
    "kind": "user",
    "methods": {},
    "version": 1
  }
}