{
  "contractName": "MultiSigWallet",
  "abi": [
    {
      "inputs": [
        {
          "internalType": "address[]",
          "name": "_owners",
          "type": "address[]"
        },
        {
          "internalType": "uint256",
          "name": "_requiredSigs",
          "type": "uint256"
        }
      ],
      "stateMutability": "nonpayable",
      "type": "constructor"
    },
    {
      "anonymous": false,
      "inputs": [
        {
          "indexed": true,
          "internalType": "address",
          "name": "sender",
          "type": "address"
        },
        {
          "indexed": true,
          "internalType": "uint256",
          "name": "transactionId",
          "type": "uint256"
        }
      ],
      "name": "Confirmation",
      "type": "event"
    },
    {
      "anonymous": false,
      "inputs": [
        {
          "indexed": true,
          "internalType": "address",
          "name": "sender",
          "type": "address"
        },
        {
          "indexed": false,
          "internalType": "uint256",
          "name": "value",
          "type": "uint256"
        }
      ],
      "name": "Deposit",
      "type": "event"
    },
    {
      "anonymous": false,
      "inputs": [
        {
          "indexed": true,
          "internalType": "uint256",
          "name": "transactionId",
          "type": "uint256"
        }
      ],
      "name": "Execution",
      "type": "event"
    },
    {
      "anonymous": false,
      "inputs": [
        {
          "indexed": true,
          "internalType": "uint256",
          "name": "transactionId",
          "type": "uint256"
        }
      ],
      "name": "ExecutionFailure",
      "type": "event"
    },
    {
      "anonymous": false,
      "inputs": [
        {
          "indexed": true,
          "internalType": "uint256",
          "name": "transactionId",
          "type": "uint256"
        }
      ],
      "name": "Submission",
      "type": "event"
    },
    {
      "inputs": [],
      "name": "MAX_OWNER_COUNT",
      "outputs": [
        {
          "internalType": "uint256",
          "name": "",
          "type": "uint256"
        }
      ],
      "stateMutability": "view",
      "type": "function"
    },
    {
      "inputs": [],
      "name": "TMP_CONSTANT",
      "outputs": [
        {
          "internalType": "uint256",
          "name": "",
          "type": "uint256"
        }
      ],
      "stateMutability": "view",
      "type": "function"
    },
    {
      "inputs": [
        {
          "internalType": "address",
          "name": "",
          "type": "address"
        }
      ],
      "name": "isOwner",
      "outputs": [
        {
          "internalType": "bool",
          "name": "",
          "type": "bool"
        }
      ],
      "stateMutability": "view",
      "type": "function"
    },
    {
      "inputs": [],
      "name": "minSignatures",
      "outputs": [
        {
          "internalType": "uint256",
          "name": "",
          "type": "uint256"
        }
      ],
      "stateMutability": "view",
      "type": "function"
    },
    {
      "inputs": [
        {
          "internalType": "uint256",
          "name": "",
          "type": "uint256"
        }
      ],
      "name": "owners",
      "outputs": [
        {
          "internalType": "address",
          "name": "",
          "type": "address"
        }
      ],
      "stateMutability": "view",
      "type": "function"
    },
    {
      "inputs": [
        {
          "internalType": "uint256",
          "name": "",
          "type": "uint256"
        },
        {
          "internalType": "address",
          "name": "",
          "type": "address"
        }
      ],
      "name": "signatures",
      "outputs": [
        {
          "internalType": "bool",
          "name": "",
          "type": "bool"
        }
      ],
      "stateMutability": "view",
      "type": "function"
    },
    {
      "inputs": [],
      "name": "transactionCount",
      "outputs": [
        {
          "internalType": "uint256",
          "name": "",
          "type": "uint256"
        }
      ],
      "stateMutability": "view",
      "type": "function"
    },
    {
      "inputs": [
        {
          "internalType": "uint256",
          "name": "",
          "type": "uint256"
        }
      ],
      "name": "transactions",
      "outputs": [
        {
          "internalType": "address",
          "name": "destination",
          "type": "address"
        },
        {
          "internalType": "uint256",
          "name": "value",
          "type": "uint256"
        }
      ],
      "stateMutability": "view",
      "type": "function"
    },
    {
      "stateMutability": "payable",
      "type": "receive"
    },
    {
      "inputs": [
        {
          "internalType": "address",
          "name": "destination",
          "type": "address"
        },
        {
          "internalType": "uint256",
          "name": "value",
          "type": "uint256"
        }
      ],
      "name": "submitTransaction",
      "outputs": [
        {
          "internalType": "uint256",
          "name": "transactionId",
          "type": "uint256"
        }
      ],
      "stateMutability": "nonpayable",
      "type": "function"
    },
    {
      "inputs": [
        {
          "internalType": "uint256",
          "name": "transactionId",
          "type": "uint256"
        }
      ],
      "name": "confirmTransaction",
      "outputs": [],
      "stateMutability": "nonpayable",
      "type": "function"
    },
    {
      "inputs": [
        {
          "internalType": "uint256",
          "name": "transactionId",
          "type": "uint256"
        }
      ],
      "name": "executeTransaction",
      "outputs": [],
      "stateMutability": "nonpayable",
      "type": "function"
    },
    {
      "inputs": [
        {
          "internalType": "uint256",
          "name": "transactionId",
          "type": "uint256"
        }
      ],
      "name": "isTxConfirmed",
      "outputs": [
        {
          "internalType": "bool",
          "name": "",
          "type": "bool"
        }
      ],
      "stateMutability": "view",
      "type": "function"
    },
    {
      "inputs": [
        {
          "internalType": "uint256",
          "name": "transactionId",
          "type": "uint256"
        }
      ],
      "name": "getSignatureCount",
      "outputs": [
        {
          "internalType": "uint256",
          "name": "count",
          "type": "uint256"
        }
      ],
      "stateMutability": "view",
      "type": "function"
    },
    {
      "inputs": [],
      "name": "getOwners",
      "outputs": [
        {
          "internalType": "address[]",
          "name": "",
          "type": "address[]"
        }
      ],
      "stateMutability": "view",
      "type": "function"
    }
  ],
  "bytecode": "0x60806040523480156200001157600080fd5b5060405162001aad38038062001aad8339818101604052810190620000379190620005fc565b8151816002811415806200004c575060028214155b156200008f576040517f08c379a00000000000000000000000000000000000000000000000000000000081526004016200008690620006e9565b60405180910390fd5b620000be84600081518110620000aa57620000a96200070b565b5b6020026020010151620002b060201b60201c565b620000ed84600181518110620000d957620000d86200070b565b5b6020026020010151620002b060201b60201c565b836001815181106200010457620001036200070b565b5b602002602001015173ffffffffffffffffffffffffffffffffffffffff16846000815181106200013957620001386200070b565b5b602002602001015173ffffffffffffffffffffffffffffffffffffffff16036200019a576040517f08c379a000000000000000000000000000000000000000000000000000000000815260040162000191906200078a565b60405180910390fd5b60016002600086600081518110620001b757620001b66200070b565b5b602002602001015173ffffffffffffffffffffffffffffffffffffffff1673ffffffffffffffffffffffffffffffffffffffff16815260200190815260200160002060006101000a81548160ff021916908315150217905550600160026000866001815181106200022d576200022c6200070b565b5b602002602001015173ffffffffffffffffffffffffffffffffffffffff1673ffffffffffffffffffffffffffffffffffffffff16815260200190815260200160002060006101000a81548160ff02191690831515021790555083600390805190602001906200029e92919062000325565b5082600481905550505050506200081e565b600073ffffffffffffffffffffffffffffffffffffffff168173ffffffffffffffffffffffffffffffffffffffff160362000322576040517f08c379a00000000000000000000000000000000000000000000000000000000081526004016200031990620007fc565b60405180910390fd5b50565b828054828255906000526020600020908101928215620003a1579160200282015b82811115620003a05782518260006101000a81548173ffffffffffffffffffffffffffffffffffffffff021916908373ffffffffffffffffffffffffffffffffffffffff1602179055509160200191906001019062000346565b5b509050620003b09190620003b4565b5090565b5b80821115620003cf576000816000905550600101620003b5565b5090565b6000604051905090565b600080fd5b600080fd5b600080fd5b6000601f19601f8301169050919050565b7f4e487b7100000000000000000000000000000000000000000000000000000000600052604160045260246000fd5b6200043782620003ec565b810181811067ffffffffffffffff82111715620004595762000458620003fd565b5b80604052505050565b60006200046e620003d3565b90506200047c82826200042c565b919050565b600067ffffffffffffffff8211156200049f576200049e620003fd565b5b602082029050602081019050919050565b600080fd5b600073ffffffffffffffffffffffffffffffffffffffff82169050919050565b6000620004e282620004b5565b9050919050565b620004f481620004d5565b81146200050057600080fd5b50565b6000815190506200051481620004e9565b92915050565b6000620005316200052b8462000481565b62000462565b90508083825260208201905060208402830185811115620005575762000556620004b0565b5b835b818110156200058457806200056f888262000503565b84526020840193505060208101905062000559565b5050509392505050565b600082601f830112620005a657620005a5620003e7565b5b8151620005b88482602086016200051a565b91505092915050565b6000819050919050565b620005d681620005c1565b8114620005e257600080fd5b50565b600081519050620005f681620005cb565b92915050565b60008060408385031215620006165762000615620003dd565b5b600083015167ffffffffffffffff811115620006375762000636620003e2565b5b62000645858286016200058e565b92505060206200065885828601620005e5565b9150509250929050565b600082825260208201905092915050565b7f56616c69646174696f6e206f6620322d6f662d32206d756c746973696720736560008201527f7474696e67206661696c65640000000000000000000000000000000000000000602082015250565b6000620006d1602c8362000662565b9150620006de8262000673565b604082019050919050565b600060208201905081810360008301526200070481620006c2565b9050919050565b7f4e487b7100000000000000000000000000000000000000000000000000000000600052603260045260246000fd5b7f41207265706561746564206f776e6572207061737365642e0000000000000000600082015250565b60006200077260188362000662565b91506200077f826200073a565b602082019050919050565b60006020820190508181036000830152620007a58162000763565b9050919050565b7f4e756c6c20616464726573732e00000000000000000000000000000000000000600082015250565b6000620007e4600d8362000662565b9150620007f182620007ac565b602082019050919050565b600060208201905081810360008301526200081781620007d5565b9050919050565b61127f806200082e6000396000f3fe6080604052600436106100e15760003560e01c80639ace38c21161007f578063c01a8c8411610059578063c01a8c8414610372578063d74f8edd1461039b578063dfeada12146103c6578063ee22610b146103f157610140565b80639ace38c2146102de578063a0e67e2b1461031c578063b77bf6001461034757610140565b8063238acaa2116100bb578063238acaa2146101fc5780632f54bf6e146102275780637743007d1461026457806383b316c0146102a157610140565b8063025e7c27146101455780631aea64c2146101825780631d43b653146101bf57610140565b3661014057600034111561013e573373ffffffffffffffffffffffffffffffffffffffff167fe1fffcc4923d04b559f4d29a8bfc6cda04eb5b0d3c460751c2402c5c5cc9109c346040516101359190610c79565b60405180910390a25b005b600080fd5b34801561015157600080fd5b5061016c60048036038101906101679190610cc5565b61041a565b6040516101799190610d33565b60405180910390f35b34801561018e57600080fd5b506101a960048036038101906101a49190610cc5565b610459565b6040516101b69190610d69565b60405180910390f35b3480156101cb57600080fd5b506101e660048036038101906101e19190610db0565b610554565b6040516101f39190610c79565b60405180910390f35b34801561020857600080fd5b50610211610571565b60405161021e9190610c79565b60405180910390f35b34801561023357600080fd5b5061024e60048036038101906102499190610df0565b610577565b60405161025b9190610d69565b60405180910390f35b34801561027057600080fd5b5061028b60048036038101906102869190610cc5565b610597565b6040516102989190610c79565b60405180910390f35b3480156102ad57600080fd5b506102c860048036038101906102c39190610e1d565b610676565b6040516102d59190610d69565b60405180910390f35b3480156102ea57600080fd5b5061030560048036038101906103009190610cc5565b6106a5565b604051610313929190610e5d565b60405180910390f35b34801561032857600080fd5b506103316106e9565b60405161033e9190610f44565b60405180910390f35b34801561035357600080fd5b5061035c610777565b6040516103699190610c79565b60405180910390f35b34801561037e57600080fd5b5061039960048036038101906103949190610cc5565b61077d565b005b3480156103a757600080fd5b506103b0610a0b565b6040516103bd9190610c79565b60405180910390f35b3480156103d257600080fd5b506103db610a10565b6040516103e89190610c79565b60405180910390f35b3480156103fd57600080fd5b5061041860048036038101906104139190610cc5565b610a15565b005b6003818154811061042a57600080fd5b906000526020600020016000915054906101000a900473ffffffffffffffffffffffffffffffffffffffff1681565b6000806000905060005b600380549050811015610548576001600085815260200190815260200160002060006003838154811061049957610498610f66565b5b9060005260206000200160009054906101000a900473ffffffffffffffffffffffffffffffffffffffff1673ffffffffffffffffffffffffffffffffffffffff1673ffffffffffffffffffffffffffffffffffffffff16815260200190815260200160002060009054906101000a900460ff16156105215760018261051e9190610fc4565b91505b60045482036105355760019250505061054f565b80806105409061101a565b915050610463565b5060009150505b919050565b60006105608383610b00565b905061056b8161077d565b92915050565b60045481565b60026020528060005260406000206000915054906101000a900460ff1681565b600080600090505b60038054905081101561067057600160008481526020019081526020016000206000600383815481106105d5576105d4610f66565b5b9060005260206000200160009054906101000a900473ffffffffffffffffffffffffffffffffffffffff1673ffffffffffffffffffffffffffffffffffffffff1673ffffffffffffffffffffffffffffffffffffffff16815260200190815260200160002060009054906101000a900460ff161561065d5760018261065a9190610fc4565b91505b80806106689061101a565b91505061059f565b50919050565b60016020528160005260406000206020528060005260406000206000915091509054906101000a900460ff1681565b60006020528060005260406000206000915090508060000160009054906101000a900473ffffffffffffffffffffffffffffffffffffffff16908060010154905082565b6060600380548060200260200160405190810160405280929190818152602001828054801561076d57602002820191906000526020600020905b8160009054906101000a900473ffffffffffffffffffffffffffffffffffffffff1673ffffffffffffffffffffffffffffffffffffffff1681526020019060010190808311610723575b5050505050905090565b60055481565b33600260008273ffffffffffffffffffffffffffffffffffffffff1673ffffffffffffffffffffffffffffffffffffffff16815260200190815260200160002060009054906101000a900460ff1661080a576040517f08c379a0000000000000000000000000000000000000000000000000000000008152600401610801906110bf565b60405180910390fd5b81600073ffffffffffffffffffffffffffffffffffffffff1660008083815260200190815260200160002060000160009054906101000a900473ffffffffffffffffffffffffffffffffffffffff1673ffffffffffffffffffffffffffffffffffffffff16036108af576040517f08c379a00000000000000000000000000000000000000000000000000000000081526004016108a69061112b565b60405180910390fd5b82336001600083815260200190815260200160002060008273ffffffffffffffffffffffffffffffffffffffff1673ffffffffffffffffffffffffffffffffffffffff16815260200190815260200160002060009054906101000a900460ff161561094f576040517f08c379a0000000000000000000000000000000000000000000000000000000008152600401610946906111bd565b60405180910390fd5b600180600087815260200190815260200160002060003373ffffffffffffffffffffffffffffffffffffffff1673ffffffffffffffffffffffffffffffffffffffff16815260200190815260200160002060006101000a81548160ff021916908315150217905550843373ffffffffffffffffffffffffffffffffffffffff167f4a504a94899432a9846e1aa406dceb1bcfd538bb839071d49d1e5e23f5be30ef60405160405180910390a3610a0485610a15565b5050505050565b600a81565b600a81565b610a1e81610459565b15610afd57600080600083815260200190815260200160002090508060000160009054906101000a900473ffffffffffffffffffffffffffffffffffffffff1673ffffffffffffffffffffffffffffffffffffffff166108fc82600101549081150290604051600060405180830381858888f1935050505015610acd57817f33e13ecb54c3076d8e8bb8c2881800a4d972b792045ffae98fdf46df365fed7560405160405180910390a2610afb565b817f526441bb6c1aba3c9a4a6ca1d6545da9c2333c8c48343ef398eb858d72b7923660405160405180910390a25b505b50565b6000610b0b83610bee565b600554905060405180604001604052808473ffffffffffffffffffffffffffffffffffffffff1681526020018381525060008083815260200190815260200160002060008201518160000160006101000a81548173ffffffffffffffffffffffffffffffffffffffff021916908373ffffffffffffffffffffffffffffffffffffffff16021790555060208201518160010155905050600160056000828254610bb49190610fc4565b92505081905550807fc0ba8fe4b176c1714197d43b9cc6bcf797a4a7461c5fe8d0ef6e184ae7601e5160405160405180910390a292915050565b600073ffffffffffffffffffffffffffffffffffffffff168173ffffffffffffffffffffffffffffffffffffffff1603610c5d576040517f08c379a0000000000000000000000000000000000000000000000000000000008152600401610c5490611229565b60405180910390fd5b50565b6000819050919050565b610c7381610c60565b82525050565b6000602082019050610c8e6000830184610c6a565b92915050565b600080fd5b610ca281610c60565b8114610cad57600080fd5b50565b600081359050610cbf81610c99565b92915050565b600060208284031215610cdb57610cda610c94565b5b6000610ce984828501610cb0565b91505092915050565b600073ffffffffffffffffffffffffffffffffffffffff82169050919050565b6000610d1d82610cf2565b9050919050565b610d2d81610d12565b82525050565b6000602082019050610d486000830184610d24565b92915050565b60008115159050919050565b610d6381610d4e565b82525050565b6000602082019050610d7e6000830184610d5a565b92915050565b610d8d81610d12565b8114610d9857600080fd5b50565b600081359050610daa81610d84565b92915050565b60008060408385031215610dc757610dc6610c94565b5b6000610dd585828601610d9b565b9250506020610de685828601610cb0565b9150509250929050565b600060208284031215610e0657610e05610c94565b5b6000610e1484828501610d9b565b91505092915050565b60008060408385031215610e3457610e33610c94565b5b6000610e4285828601610cb0565b9250506020610e5385828601610d9b565b9150509250929050565b6000604082019050610e726000830185610d24565b610e7f6020830184610c6a565b9392505050565b600081519050919050565b600082825260208201905092915050565b6000819050602082019050919050565b610ebb81610d12565b82525050565b6000610ecd8383610eb2565b60208301905092915050565b6000602082019050919050565b6000610ef182610e86565b610efb8185610e91565b9350610f0683610ea2565b8060005b83811015610f37578151610f1e8882610ec1565b9750610f2983610ed9565b925050600181019050610f0a565b5085935050505092915050565b60006020820190508181036000830152610f5e8184610ee6565b905092915050565b7f4e487b7100000000000000000000000000000000000000000000000000000000600052603260045260246000fd5b7f4e487b7100000000000000000000000000000000000000000000000000000000600052601160045260246000fd5b6000610fcf82610c60565b9150610fda83610c60565b9250827fffffffffffffffffffffffffffffffffffffffffffffffffffffffffffffffff0382111561100f5761100e610f95565b5b828201905092915050565b600061102582610c60565b91507fffffffffffffffffffffffffffffffffffffffffffffffffffffffffffffffff820361105757611056610f95565b5b600182019050919050565b600082825260208201905092915050565b7f4f776e657220646f6573206e6f742065786973742e0000000000000000000000600082015250565b60006110a9601583611062565b91506110b482611073565b602082019050919050565b600060208201905081810360008301526110d88161109c565b9050919050565b7f5472616e73616374696f6e20646f6573206e6f7420657869742e000000000000600082015250565b6000611115601a83611062565b9150611120826110df565b602082019050919050565b6000602082019050818103600083015261114481611108565b9050919050565b7f5472616e73616374696f6e2077617320616c726561647920636f6e6669726d6560008201527f642e000000000000000000000000000000000000000000000000000000000000602082015250565b60006111a7602283611062565b91506111b28261114b565b604082019050919050565b600060208201905081810360008301526111d68161119a565b9050919050565b7f4e756c6c20616464726573732e00000000000000000000000000000000000000600082015250565b6000611213600d83611062565b915061121e826111dd565b602082019050919050565b6000602082019050818103600083015261124281611206565b905091905056fea264697066735822122002f422a8a3bffc122fed9577e576540a49bd1e7a2b397d53f143efdb1beecaa564736f6c634300080d0033",
  "immutableReferences": {},
  "source": "// SPDX-License-Identifier: MIT\npragma solidity 0.8.13;\n\ncontract MultiSigWallet {\n    \n    /*\n     * Data types and variables\n     */ \n\n    uint constant public MAX_OWNER_COUNT = 10;\n    uint constant public TMP_CONSTANT = 10;\n\n    event Confirmation(address indexed sender, uint indexed transactionId);\n    event Submission(uint indexed transactionId);\n    event Execution(uint indexed transactionId);\n    event ExecutionFailure(uint indexed transactionId);\n    event Deposit(address indexed sender, uint value);\n\n    struct Transaction {\n        address destination; // receiver of crypto-tokens (Ether) sent\n        uint value; // amount to sent from contract\n    }\n\n    mapping (uint => Transaction) public transactions; // Mapping of Txn IDs to Transaction objects\n    mapping (uint => mapping (address => bool)) public signatures; // Mapping of Txn IDs to owners who already signed them\n    mapping (address => bool) public isOwner;\n    \n    address[] public owners; // all possible signers of each transaction\n    uint public minSignatures; // minimum number of signatures required for execution of each transaction\n    uint public transactionCount; \n\n\n    /*\n     * Modifiers serve as macros in C - they are substitued to the place of usage, while placeholder \"_\" represents the body of the function that \"calls\" them\n     */\n\n    modifier checkValidSettings(uint ownerCount, uint _requiredSigs) {\n        // TASK: replace the body of this modifier to fit n-of-m multisig scheme while you verify: \n        //  1) the maximum number of owners, \n        //  2) whether required signatures is not 0 or higher than MAX_OWNER_COUNT \n        //  3) the number of owners is not 0\n        \n        if(_requiredSigs != 2 || ownerCount != 2){\n             revert(\"Validation of 2-of-2 multisig setting failed\");\n        }\n        _;\n    }\n    modifier ownerExists(address owner) {\n        if (!isOwner[owner])\n            revert(\"Owner does not exist.\");\n        _;\n    }\n    modifier txnExists(uint transactionId) {\n        if (transactions[transactionId].destination == address(0))\n            revert(\"Transaction does not exit.\");\n        _;\n    }\n    modifier confirmed(uint transactionId, address owner) {\n        if (!signatures[transactionId][owner])\n            revert(\"Confirmation of transaction by an owner does not exist.\");\n        _;\n    }\n    modifier notConfirmed(uint transactionId, address owner) {\n        if (signatures[transactionId][owner])\n            revert(\"Transaction was already confirmed.\");\n        _;\n    }    \n    \n    // TASK 1: write here a modifier that will protect against replay attacks. Call it at the correct place\n    // modifier nameOfModifier(uint transactionId){\n    //     ... body ... \n    //     _;\n    // }\n\n\n    /**\n     * Public functions - functions can be called by anybody, so access controll must be implemented within their bodies\n     */\n\n    /// @dev Receive function -- allows to deposit Ether by anybody just by sending the value to the address of the contract\n    // 'msg.value' holds the amount of Ether sent in the current transaction and 'msg.sender' is the address of the sender of a transaction\n    receive() external payable {\n        if (msg.value > 0){             \n            emit Deposit(msg.sender, msg.value); // emiting of the event is stored at the blockchain as well. So, UI knows that Ether was deposited.\n        }\n    }\n\n    /// @dev Constructor of n-of-m multisig wallet. It sets initial owners (i.e., signers) and minimal required number of signatures.\n    /// @param _owners List of owners.\n    /// @param _requiredSigs - the minimal number of required signatures.\n    constructor(address[] memory _owners, uint _requiredSigs)\n        checkValidSettings(_owners.length, _requiredSigs)\n    {        \n        // TASK 2: Modify this constructor to fit n-of-m scheme, i.e., an arbitrary number of owners and required signatures (max. is MAX_OWNER_COUNT)\n        // do not allow repeating addresses or zero addresses to be passed in _owners\n        \n        checkNotNull(_owners[0]);\n        checkNotNull(_owners[1]);\n        \n        if(_owners[0] == _owners[1]){\n            revert(\"A repeated owner passed.\");\n        }\n\n        // save owners (m) and the minimum number of signatures (n) to the storage variables of the contract\n        isOwner[_owners[0]] = true;\n        isOwner[_owners[1]] = true;        \n        owners = _owners;\n        minSignatures = _requiredSigs;\n    }\n\n\n    /// @dev Allows an owner to submit and confirm a transaction.\n    /// @param destination Transaction target address.\n    /// @param value Transaction ether value.\n    /// @return transactionId - transaction ID.\n    function submitTransaction(address destination, uint value) \n        public returns (uint transactionId)\n    {\n        transactionId = addTransaction(destination, value);\n        confirmTransaction(transactionId);\n        return transactionId;\n    }\n\n    /// @dev Allows an owner to confirm a transaction.\n    /// @param transactionId Transaction ID.\n    function confirmTransaction(uint transactionId) public\n        ownerExists(msg.sender)\n        txnExists(transactionId)\n        notConfirmed(transactionId, msg.sender)\n    {\n        signatures[transactionId][msg.sender] = true;\n        emit Confirmation(msg.sender, transactionId);\n        executeTransaction(transactionId);\n    }\n\n    /// @dev Allows anyone to execute a confirmed transaction.\n    /// @param transactionId Transaction ID.\n    function executeTransaction(uint transactionId) public                \n    {\n        // TASK 3: check whether the contract has enough balance and if not emit a new event called NotEnoughBalance(curBalance, requestedBalance)\n\n        if (isTxConfirmed(transactionId)) {\n            Transaction storage txn = transactions[transactionId];          \n\n            if (payable(address(uint160(txn.destination))).send(txn.value)){ // sending the Ether to destination address\n                emit Execution(transactionId);              \n            }\n            else {\n                emit ExecutionFailure(transactionId);                \n            }\n        }\n    }\n\n    /// @dev Returns the confirmation status of a transaction - do we have enough signatures already?\n    /// @param transactionId -- Transaction ID.\n    /// @return Confirmation status: true means that TX can be executed; false - TX cannot be exectued as there are not enough signatures\n    function isTxConfirmed(uint transactionId) public view returns (bool)\n    {\n        uint count = 0;\n        for (uint i = 0 ; i < owners.length ; i++) {\n            if (signatures[transactionId][owners[i]]){\n                count += 1;\n            }\n            if (count == minSignatures){\n                return true;   \n            }                \n        }\n        return false;\n    }\n\n    /*\n     * Internal functions - called only from inside of the smart contract\n     */\n    \n    function checkNotNull(address _address) internal pure {\n        if (_address == address(0x0)){\n            revert(\"Null address.\");        \n        }            \n    }\n    \n    /// @dev Adds a new transaction to the transaction mapping, if transaction does not exist yet.\n    /// @param destination Transaction target address.\n    /// @param value Transaction ether value.\n    /// @return transactionId - transaction ID.\n    function addTransaction(address destination, uint value) internal returns (uint transactionId)\n    {\n        checkNotNull(destination);\n        transactionId = transactionCount;\n        transactions[transactionId] = Transaction({\n            destination: destination,\n            value: value\n        });\n        transactionCount += 1;\n        emit Submission(transactionId);\n        return transactionId;\n    }\n\n    /*\n     *  Public functions for DAPP client (i.e., simulated by tests)\n     */\n    /// @dev Returns number of signatures of a transaction.\n    /// @param transactionId Transaction ID.\n    /// @return count - the number of signatures.\n    function getSignatureCount(uint transactionId) public view returns (uint count)\n    {\n        for (uint i = 0; i < owners.length; i++)\n            if (signatures[transactionId][owners[i]]){\n                count += 1;\n            }       \n        return count;         \n    }\n\n    /// @dev Returns list of all owners.\n    /// @return List of owner addresses.\n    function getOwners()\n        public view returns (address[] memory)\n    {\n        return owners;\n    }\n\n\n    // TASK 4: write a public read-only (not modifying the state) function that retrieves addresses of owners who signed a passed transaction\n\n    /// @dev Returns array with owners that confirmed a transaction.\n    /// @param transactionId Transaction ID.\n    /// @return Returns array of owner addresses.\n    // function getOwnersWhoSignedTx(uint transactionId)\n    //     ... modifiers / visibility specifiers...\n    // {\n    //     ... body ...\n    // }\n}",
  "sourcePath": "C:\\Users\\jiriv\\Documents\\kola\\multisig-wallet-2024\\contracts\\MultisigWallet.sol",
  "compiler": {
    "name": "solc",
    "version": "0.8.13+commit.abaa5c0e.Emscripten.clang"
  },
  "schemaVersion": "3.4.16",
  "updatedAt": "2024-04-10T08:28:59.279Z",
  "devdoc": {
    "kind": "dev",
    "methods": {
      "confirmTransaction(uint256)": {
        "details": "Allows an owner to confirm a transaction.",
        "params": {
          "transactionId": "Transaction ID."
        }
      },
      "constructor": {
        "details": "Constructor of n-of-m multisig wallet. It sets initial owners (i.e., signers) and minimal required number of signatures.",
        "params": {
          "_owners": "List of owners.",
          "_requiredSigs": "- the minimal number of required signatures."
        }
      },
      "executeTransaction(uint256)": {
        "details": "Allows anyone to execute a confirmed transaction.",
        "params": {
          "transactionId": "Transaction ID."
        }
      },
      "getOwners()": {
        "details": "Returns list of all owners.",
        "returns": {
          "_0": "List of owner addresses."
        }
      },
      "getSignatureCount(uint256)": {
        "details": "Returns number of signatures of a transaction.",
        "params": {
          "transactionId": "Transaction ID."
        },
        "returns": {
          "count": "- the number of signatures."
        }
      },
      "isTxConfirmed(uint256)": {
        "details": "Returns the confirmation status of a transaction - do we have enough signatures already?",
        "params": {
          "transactionId": "-- Transaction ID."
        },
        "returns": {
          "_0": "Confirmation status: true means that TX can be executed; false - TX cannot be exectued as there are not enough signatures"
        }
      },
      "submitTransaction(address,uint256)": {
        "details": "Allows an owner to submit and confirm a transaction.",
        "params": {
          "destination": "Transaction target address.",
          "value": "Transaction ether value."
        },
        "returns": {
          "transactionId": "- transaction ID."
        }
      }
    },
    "version": 1
  },
  "userdoc": {
    "kind": "user",
    "methods": {},
    "version": 1
  }
}